{
	"Decision-making_sol.sol": {
		"DecisionMakingExercise": {
			"abi": [
				{
					"inputs": [],
					"name": "a",
					"outputs": [
						{
							"internalType": "uint256",
							"name": "",
							"type": "uint256"
						}
					],
					"stateMutability": "view",
					"type": "function"
				},
				{
					"inputs": [],
					"name": "b",
					"outputs": [
						{
							"internalType": "uint256",
							"name": "",
							"type": "uint256"
						}
					],
					"stateMutability": "view",
					"type": "function"
				},
				{
					"inputs": [],
					"name": "f",
					"outputs": [
						{
							"internalType": "uint256",
							"name": "",
							"type": "uint256"
						}
					],
					"stateMutability": "view",
					"type": "function"
				},
				{
					"inputs": [],
					"name": "finalize",
					"outputs": [
						{
							"internalType": "uint256",
							"name": "Result",
							"type": "uint256"
						}
					],
					"stateMutability": "view",
					"type": "function"
				}
			],
			"devdoc": {
				"kind": "dev",
				"methods": {},
				"version": 1
			},
			"evm": {
				"assembly": "    /* \"Decision-making_sol.sol\":57:373  contract DecisionMakingExercise {... */\n  mstore(0x40, 0x80)\n    /* \"Decision-making_sol.sol\":114:117  300 */\n  0x012c\n    /* \"Decision-making_sol.sol\":95:117  uint256 public a = 300 */\n  0x00\n  sstore\n    /* \"Decision-making_sol.sol\":142:144  12 */\n  0x0c\n    /* \"Decision-making_sol.sol\":123:144  uint256 public b = 12 */\n  0x01\n  sstore\n    /* \"Decision-making_sol.sol\":169:171  47 */\n  0x2f\n    /* \"Decision-making_sol.sol\":150:171  uint256 public f = 47 */\n  0x02\n  sstore\n    /* \"Decision-making_sol.sol\":57:373  contract DecisionMakingExercise {... */\n  callvalue\n  dup1\n  iszero\n  tag_1\n  jumpi\n  0x00\n  dup1\n  revert\ntag_1:\n  pop\n  dataSize(sub_0)\n  dup1\n  dataOffset(sub_0)\n  0x00\n  codecopy\n  0x00\n  return\nstop\n\nsub_0: assembly {\n        /* \"Decision-making_sol.sol\":57:373  contract DecisionMakingExercise {... */\n      mstore(0x40, 0x80)\n      callvalue\n      dup1\n      iszero\n      tag_1\n      jumpi\n      0x00\n      dup1\n      revert\n    tag_1:\n      pop\n      jumpi(tag_2, lt(calldatasize, 0x04))\n      shr(0xe0, calldataload(0x00))\n      dup1\n      0x0dbe671f\n      eq\n      tag_3\n      jumpi\n      dup1\n      0x26121ff0\n      eq\n      tag_4\n      jumpi\n      dup1\n      0x4bb278f3\n      eq\n      tag_5\n      jumpi\n      dup1\n      0x4df7e3d0\n      eq\n      tag_6\n      jumpi\n    tag_2:\n      0x00\n      dup1\n      revert\n        /* \"Decision-making_sol.sol\":95:117  uint256 public a = 300 */\n    tag_3:\n      tag_7\n      tag_8\n      jump\t// in\n    tag_7:\n      mload(0x40)\n      tag_9\n      swap2\n      swap1\n      tag_10\n      jump\t// in\n    tag_9:\n      mload(0x40)\n      dup1\n      swap2\n      sub\n      swap1\n      return\n        /* \"Decision-making_sol.sol\":150:171  uint256 public f = 47 */\n    tag_4:\n      tag_11\n      tag_12\n      jump\t// in\n    tag_11:\n      mload(0x40)\n      tag_13\n      swap2\n      swap1\n      tag_10\n      jump\t// in\n    tag_13:\n      mload(0x40)\n      dup1\n      swap2\n      sub\n      swap1\n      return\n        /* \"Decision-making_sol.sol\":178:371  function finalize() public view returns (uint256 Result) {... */\n    tag_5:\n      tag_14\n      tag_15\n      jump\t// in\n    tag_14:\n      mload(0x40)\n      tag_16\n      swap2\n      swap1\n      tag_10\n      jump\t// in\n    tag_16:\n      mload(0x40)\n      dup1\n      swap2\n      sub\n      swap1\n      return\n        /* \"Decision-making_sol.sol\":123:144  uint256 public b = 12 */\n    tag_6:\n      tag_17\n      tag_18\n      jump\t// in\n    tag_17:\n      mload(0x40)\n      tag_19\n      swap2\n      swap1\n      tag_10\n      jump\t// in\n    tag_19:\n      mload(0x40)\n      dup1\n      swap2\n      sub\n      swap1\n      return\n        /* \"Decision-making_sol.sol\":95:117  uint256 public a = 300 */\n    tag_8:\n      sload(0x00)\n      dup2\n      jump\t// out\n        /* \"Decision-making_sol.sol\":150:171  uint256 public f = 47 */\n    tag_12:\n      sload(0x02)\n      dup2\n      jump\t// out\n        /* \"Decision-making_sol.sol\":178:371  function finalize() public view returns (uint256 Result) {... */\n    tag_15:\n        /* \"Decision-making_sol.sol\":219:233  uint256 Result */\n      0x00\n        /* \"Decision-making_sol.sol\":245:254  uint256 d */\n      dup1\n        /* \"Decision-making_sol.sol\":257:259  23 */\n      0x17\n        /* \"Decision-making_sol.sol\":245:259  uint256 d = 23 */\n      swap1\n      pop\n        /* \"Decision-making_sol.sol\":278:279  f */\n      sload(0x02)\n        /* \"Decision-making_sol.sol\":274:275  a */\n      sload(0x00)\n        /* \"Decision-making_sol.sol\":274:279  a > f */\n      gt\n        /* \"Decision-making_sol.sol\":270:365  if (a > f) {... */\n      iszero\n      tag_21\n      jumpi\n        /* \"Decision-making_sol.sol\":312:313  d */\n      dup1\n        /* \"Decision-making_sol.sol\":308:309  b */\n      sload(0x01)\n        /* \"Decision-making_sol.sol\":304:305  a */\n      sload(0x00)\n        /* \"Decision-making_sol.sol\":304:309  a * b */\n      tag_22\n      swap2\n      swap1\n      tag_23\n      jump\t// in\n    tag_22:\n        /* \"Decision-making_sol.sol\":304:313  a * b * d */\n      tag_24\n      swap2\n      swap1\n      tag_23\n      jump\t// in\n    tag_24:\n        /* \"Decision-making_sol.sol\":295:313  Result = a * b * d */\n      swap2\n      pop\n        /* \"Decision-making_sol.sol\":270:365  if (a > f) {... */\n      jump(tag_25)\n    tag_21:\n        /* \"Decision-making_sol.sol\":353:354  0 */\n      0x00\n        /* \"Decision-making_sol.sol\":344:354  Result = 0 */\n      swap2\n      pop\n        /* \"Decision-making_sol.sol\":270:365  if (a > f) {... */\n    tag_25:\n        /* \"Decision-making_sol.sol\":178:371  function finalize() public view returns (uint256 Result) {... */\n      pop\n      swap1\n      jump\t// out\n        /* \"Decision-making_sol.sol\":123:144  uint256 public b = 12 */\n    tag_18:\n      sload(0x01)\n      dup2\n      jump\t// out\n        /* \"#utility.yul\":7:125   */\n    tag_27:\n        /* \"#utility.yul\":94:118   */\n      tag_29\n        /* \"#utility.yul\":112:117   */\n      dup2\n        /* \"#utility.yul\":94:118   */\n      tag_30\n      jump\t// in\n    tag_29:\n        /* \"#utility.yul\":89:92   */\n      dup3\n        /* \"#utility.yul\":82:119   */\n      mstore\n        /* \"#utility.yul\":72:125   */\n      pop\n      pop\n      jump\t// out\n        /* \"#utility.yul\":131:353   */\n    tag_10:\n      0x00\n        /* \"#utility.yul\":262:264   */\n      0x20\n        /* \"#utility.yul\":251:260   */\n      dup3\n        /* \"#utility.yul\":247:265   */\n      add\n        /* \"#utility.yul\":239:265   */\n      swap1\n      pop\n        /* \"#utility.yul\":275:346   */\n      tag_32\n        /* \"#utility.yul\":343:344   */\n      0x00\n        /* \"#utility.yul\":332:341   */\n      dup4\n        /* \"#utility.yul\":328:345   */\n      add\n        /* \"#utility.yul\":319:325   */\n      dup5\n        /* \"#utility.yul\":275:346   */\n      tag_27\n      jump\t// in\n    tag_32:\n        /* \"#utility.yul\":229:353   */\n      swap3\n      swap2\n      pop\n      pop\n      jump\t// out\n        /* \"#utility.yul\":359:707   */\n    tag_23:\n      0x00\n        /* \"#utility.yul\":422:442   */\n      tag_34\n        /* \"#utility.yul\":440:441   */\n      dup3\n        /* \"#utility.yul\":422:442   */\n      tag_30\n      jump\t// in\n    tag_34:\n        /* \"#utility.yul\":417:442   */\n      swap2\n      pop\n        /* \"#utility.yul\":456:476   */\n      tag_35\n        /* \"#utility.yul\":474:475   */\n      dup4\n        /* \"#utility.yul\":456:476   */\n      tag_30\n      jump\t// in\n    tag_35:\n        /* \"#utility.yul\":451:476   */\n      swap3\n      pop\n        /* \"#utility.yul\":644:645   */\n      dup2\n        /* \"#utility.yul\":576:642   */\n      0xffffffffffffffffffffffffffffffffffffffffffffffffffffffffffffffff\n        /* \"#utility.yul\":572:646   */\n      div\n        /* \"#utility.yul\":569:570   */\n      dup4\n        /* \"#utility.yul\":566:647   */\n      gt\n        /* \"#utility.yul\":561:562   */\n      dup3\n        /* \"#utility.yul\":554:563   */\n      iszero\n        /* \"#utility.yul\":547:564   */\n      iszero\n        /* \"#utility.yul\":543:648   */\n      and\n        /* \"#utility.yul\":540:542   */\n      iszero\n      tag_36\n      jumpi\n        /* \"#utility.yul\":651:669   */\n      tag_37\n      tag_38\n      jump\t// in\n    tag_37:\n        /* \"#utility.yul\":540:542   */\n    tag_36:\n        /* \"#utility.yul\":699:700   */\n      dup3\n        /* \"#utility.yul\":696:697   */\n      dup3\n        /* \"#utility.yul\":692:701   */\n      mul\n        /* \"#utility.yul\":681:701   */\n      swap1\n      pop\n        /* \"#utility.yul\":407:707   */\n      swap3\n      swap2\n      pop\n      pop\n      jump\t// out\n        /* \"#utility.yul\":713:790   */\n    tag_30:\n      0x00\n        /* \"#utility.yul\":779:784   */\n      dup2\n        /* \"#utility.yul\":768:784   */\n      swap1\n      pop\n        /* \"#utility.yul\":758:790   */\n      swap2\n      swap1\n      pop\n      jump\t// out\n        /* \"#utility.yul\":796:976   */\n    tag_38:\n        /* \"#utility.yul\":844:921   */\n      0x4e487b7100000000000000000000000000000000000000000000000000000000\n        /* \"#utility.yul\":841:842   */\n      0x00\n        /* \"#utility.yul\":834:922   */\n      mstore\n        /* \"#utility.yul\":941:945   */\n      0x11\n        /* \"#utility.yul\":938:939   */\n      0x04\n        /* \"#utility.yul\":931:946   */\n      mstore\n        /* \"#utility.yul\":965:969   */\n      0x24\n        /* \"#utility.yul\":962:963   */\n      0x00\n        /* \"#utility.yul\":955:970   */\n      revert\n\n    auxdata: 0xa26469706673582212208299d4d2818615ad4ffe4a6ff58022a7b15c64da60a8f4a2f638377b3653be3364736f6c63430008000033\n}\n",
				"bytecode": {
					"linkReferences": {},
					"object": "608060405261012c600055600c600155602f60025534801561002057600080fd5b5061020c806100306000396000f3fe608060405234801561001057600080fd5b506004361061004c5760003560e01c80630dbe671f1461005157806326121ff01461006f5780634bb278f31461008d5780634df7e3d0146100ab575b600080fd5b6100596100c9565b6040516100669190610128565b60405180910390f35b6100776100cf565b6040516100849190610128565b60405180910390f35b6100956100d5565b6040516100a29190610128565b60405180910390f35b6100b3610113565b6040516100c09190610128565b60405180910390f35b60005481565b60025481565b60008060179050600254600054111561010a57806001546000546100f99190610143565b6101039190610143565b915061010f565b600091505b5090565b60015481565b6101228161019d565b82525050565b600060208201905061013d6000830184610119565b92915050565b600061014e8261019d565b91506101598361019d565b9250817fffffffffffffffffffffffffffffffffffffffffffffffffffffffffffffffff0483118215151615610192576101916101a7565b5b828202905092915050565b6000819050919050565b7f4e487b7100000000000000000000000000000000000000000000000000000000600052601160045260246000fdfea26469706673582212208299d4d2818615ad4ffe4a6ff58022a7b15c64da60a8f4a2f638377b3653be3364736f6c63430008000033",
					"opcodes": "PUSH1 0x80 PUSH1 0x40 MSTORE PUSH2 0x12C PUSH1 0x0 SSTORE PUSH1 0xC PUSH1 0x1 SSTORE PUSH1 0x2F PUSH1 0x2 SSTORE CALLVALUE DUP1 ISZERO PUSH2 0x20 JUMPI PUSH1 0x0 DUP1 REVERT JUMPDEST POP PUSH2 0x20C DUP1 PUSH2 0x30 PUSH1 0x0 CODECOPY PUSH1 0x0 RETURN INVALID PUSH1 0x80 PUSH1 0x40 MSTORE CALLVALUE DUP1 ISZERO PUSH2 0x10 JUMPI PUSH1 0x0 DUP1 REVERT JUMPDEST POP PUSH1 0x4 CALLDATASIZE LT PUSH2 0x4C JUMPI PUSH1 0x0 CALLDATALOAD PUSH1 0xE0 SHR DUP1 PUSH4 0xDBE671F EQ PUSH2 0x51 JUMPI DUP1 PUSH4 0x26121FF0 EQ PUSH2 0x6F JUMPI DUP1 PUSH4 0x4BB278F3 EQ PUSH2 0x8D JUMPI DUP1 PUSH4 0x4DF7E3D0 EQ PUSH2 0xAB JUMPI JUMPDEST PUSH1 0x0 DUP1 REVERT JUMPDEST PUSH2 0x59 PUSH2 0xC9 JUMP JUMPDEST PUSH1 0x40 MLOAD PUSH2 0x66 SWAP2 SWAP1 PUSH2 0x128 JUMP JUMPDEST PUSH1 0x40 MLOAD DUP1 SWAP2 SUB SWAP1 RETURN JUMPDEST PUSH2 0x77 PUSH2 0xCF JUMP JUMPDEST PUSH1 0x40 MLOAD PUSH2 0x84 SWAP2 SWAP1 PUSH2 0x128 JUMP JUMPDEST PUSH1 0x40 MLOAD DUP1 SWAP2 SUB SWAP1 RETURN JUMPDEST PUSH2 0x95 PUSH2 0xD5 JUMP JUMPDEST PUSH1 0x40 MLOAD PUSH2 0xA2 SWAP2 SWAP1 PUSH2 0x128 JUMP JUMPDEST PUSH1 0x40 MLOAD DUP1 SWAP2 SUB SWAP1 RETURN JUMPDEST PUSH2 0xB3 PUSH2 0x113 JUMP JUMPDEST PUSH1 0x40 MLOAD PUSH2 0xC0 SWAP2 SWAP1 PUSH2 0x128 JUMP JUMPDEST PUSH1 0x40 MLOAD DUP1 SWAP2 SUB SWAP1 RETURN JUMPDEST PUSH1 0x0 SLOAD DUP2 JUMP JUMPDEST PUSH1 0x2 SLOAD DUP2 JUMP JUMPDEST PUSH1 0x0 DUP1 PUSH1 0x17 SWAP1 POP PUSH1 0x2 SLOAD PUSH1 0x0 SLOAD GT ISZERO PUSH2 0x10A JUMPI DUP1 PUSH1 0x1 SLOAD PUSH1 0x0 SLOAD PUSH2 0xF9 SWAP2 SWAP1 PUSH2 0x143 JUMP JUMPDEST PUSH2 0x103 SWAP2 SWAP1 PUSH2 0x143 JUMP JUMPDEST SWAP2 POP PUSH2 0x10F JUMP JUMPDEST PUSH1 0x0 SWAP2 POP JUMPDEST POP SWAP1 JUMP JUMPDEST PUSH1 0x1 SLOAD DUP2 JUMP JUMPDEST PUSH2 0x122 DUP2 PUSH2 0x19D JUMP JUMPDEST DUP3 MSTORE POP POP JUMP JUMPDEST PUSH1 0x0 PUSH1 0x20 DUP3 ADD SWAP1 POP PUSH2 0x13D PUSH1 0x0 DUP4 ADD DUP5 PUSH2 0x119 JUMP JUMPDEST SWAP3 SWAP2 POP POP JUMP JUMPDEST PUSH1 0x0 PUSH2 0x14E DUP3 PUSH2 0x19D JUMP JUMPDEST SWAP2 POP PUSH2 0x159 DUP4 PUSH2 0x19D JUMP JUMPDEST SWAP3 POP DUP2 PUSH32 0xFFFFFFFFFFFFFFFFFFFFFFFFFFFFFFFFFFFFFFFFFFFFFFFFFFFFFFFFFFFFFFFF DIV DUP4 GT DUP3 ISZERO ISZERO AND ISZERO PUSH2 0x192 JUMPI PUSH2 0x191 PUSH2 0x1A7 JUMP JUMPDEST JUMPDEST DUP3 DUP3 MUL SWAP1 POP SWAP3 SWAP2 POP POP JUMP JUMPDEST PUSH1 0x0 DUP2 SWAP1 POP SWAP2 SWAP1 POP JUMP JUMPDEST PUSH32 0x4E487B7100000000000000000000000000000000000000000000000000000000 PUSH1 0x0 MSTORE PUSH1 0x11 PUSH1 0x4 MSTORE PUSH1 0x24 PUSH1 0x0 REVERT INVALID LOG2 PUSH5 0x6970667358 0x22 SLT KECCAK256 DUP3 SWAP10 0xD4 0xD2 DUP2 DUP7 ISZERO 0xAD 0x4F INVALID 0x4A PUSH16 0xF58022A7B15C64DA60A8F4A2F638377B CALLDATASIZE MSTORE8 0xBE CALLER PUSH5 0x736F6C6343 STOP ADDMOD STOP STOP CALLER "
				},
				"gasEstimates": {
					"creation": {
						"codeDepositCost": "104800",
						"executionCost": "60171",
						"totalCost": "164971"
					},
					"external": {
						"a()": "1107",
						"b()": "1173",
						"f()": "1129",
						"finalize()": "infinite"
					}
				},
				"methodIdentifiers": {
					"a()": "0dbe671f",
					"b()": "4df7e3d0",
					"f()": "26121ff0",
					"finalize()": "4bb278f3"
				}
			},
			"storageLayout": {
				"storage": [
					{
						"astId": 4,
						"contract": "Decision-making_sol.sol:DecisionMakingExercise",
						"label": "a",
						"offset": 0,
						"slot": "0",
						"type": "t_uint256"
					},
					{
						"astId": 7,
						"contract": "Decision-making_sol.sol:DecisionMakingExercise",
						"label": "b",
						"offset": 0,
						"slot": "1",
						"type": "t_uint256"
					},
					{
						"astId": 10,
						"contract": "Decision-making_sol.sol:DecisionMakingExercise",
						"label": "f",
						"offset": 0,
						"slot": "2",
						"type": "t_uint256"
					}
				],
				"types": {
					"t_uint256": {
						"encoding": "inplace",
						"label": "uint256",
						"numberOfBytes": "32"
					}
				}
			},
			"userdoc": {
				"kind": "user",
				"methods": {},
				"version": 1
			}
		}
	}
}