{
	"Enums.sol": {
		"ColorPalette": {
			"abi": [
				{
					"inputs": [],
					"stateMutability": "nonpayable",
					"type": "constructor"
				},
				{
					"inputs": [],
					"name": "colorChoice",
					"outputs": [
						{
							"internalType": "enum ColorPalette.Color",
							"name": "",
							"type": "uint8"
						}
					],
					"stateMutability": "view",
					"type": "function"
				},
				{
					"inputs": [],
					"name": "getAllChoices",
					"outputs": [
						{
							"internalType": "string",
							"name": "",
							"type": "string"
						}
					],
					"stateMutability": "pure",
					"type": "function"
				},
				{
					"inputs": [],
					"name": "getColorChoice",
					"outputs": [
						{
							"internalType": "string",
							"name": "",
							"type": "string"
						}
					],
					"stateMutability": "view",
					"type": "function"
				},
				{
					"inputs": [
						{
							"internalType": "enum ColorPalette.Color",
							"name": "_color",
							"type": "uint8"
						}
					],
					"name": "selectColor",
					"outputs": [],
					"stateMutability": "nonpayable",
					"type": "function"
				}
			],
			"devdoc": {
				"kind": "dev",
				"methods": {},
				"version": 1
			},
			"evm": {
				"assembly": "    /* \"Enums.sol\":57:851  contract ColorPalette {... */\n  mstore(0x40, 0x80)\n    /* \"Enums.sol\":162:218  constructor() {... */\n  callvalue\n  dup1\n  iszero\n  tag_1\n  jumpi\n  0x00\n  dup1\n  revert\ntag_1:\n  pop\n    /* \"Enums.sol\":200:211  Color.White */\n  0x02\n    /* \"Enums.sol\":186:197  colorChoice */\n  0x00\n  dup1\n    /* \"Enums.sol\":186:211  colorChoice = Color.White */\n  0x0100\n  exp\n  dup2\n  sload\n  dup2\n  0xff\n  mul\n  not\n  and\n  swap1\n  dup4\n  0x03\n  dup2\n  gt\n  iszero\n  tag_4\n  jumpi\n  tag_5\n  tag_6\n  jump\t// in\ntag_5:\ntag_4:\n  mul\n  or\n  swap1\n  sstore\n  pop\n    /* \"Enums.sol\":57:851  contract ColorPalette {... */\n  jump(tag_7)\n    /* \"#utility.yul\":7:187   */\ntag_6:\n    /* \"#utility.yul\":55:132   */\n  0x4e487b7100000000000000000000000000000000000000000000000000000000\n    /* \"#utility.yul\":52:53   */\n  0x00\n    /* \"#utility.yul\":45:133   */\n  mstore\n    /* \"#utility.yul\":152:156   */\n  0x21\n    /* \"#utility.yul\":149:150   */\n  0x04\n    /* \"#utility.yul\":142:157   */\n  mstore\n    /* \"#utility.yul\":176:180   */\n  0x24\n    /* \"#utility.yul\":173:174   */\n  0x00\n    /* \"#utility.yul\":166:181   */\n  revert\n    /* \"Enums.sol\":57:851  contract ColorPalette {... */\ntag_7:\n  dataSize(sub_0)\n  dup1\n  dataOffset(sub_0)\n  0x00\n  codecopy\n  0x00\n  return\nstop\n\nsub_0: assembly {\n        /* \"Enums.sol\":57:851  contract ColorPalette {... */\n      mstore(0x40, 0x80)\n      callvalue\n      dup1\n      iszero\n      tag_1\n      jumpi\n      0x00\n      dup1\n      revert\n    tag_1:\n      pop\n      jumpi(tag_2, lt(calldatasize, 0x04))\n      shr(0xe0, calldataload(0x00))\n      dup1\n      0x4f10e038\n      eq\n      tag_3\n      jumpi\n      dup1\n      0x73eb6b70\n      eq\n      tag_4\n      jumpi\n      dup1\n      0x7e23857d\n      eq\n      tag_5\n      jumpi\n      dup1\n      0xe97995dc\n      eq\n      tag_6\n      jumpi\n    tag_2:\n      0x00\n      dup1\n      revert\n        /* \"Enums.sol\":131:155  Color public colorChoice */\n    tag_3:\n      tag_7\n      tag_8\n      jump\t// in\n    tag_7:\n      mload(0x40)\n      tag_9\n      swap2\n      swap1\n      tag_10\n      jump\t// in\n    tag_9:\n      mload(0x40)\n      dup1\n      swap2\n      sub\n      swap1\n      return\n        /* \"Enums.sol\":224:303  function selectColor(Color _color) public {... */\n    tag_4:\n      tag_11\n      0x04\n      dup1\n      calldatasize\n      sub\n      dup2\n      add\n      swap1\n      tag_12\n      swap2\n      swap1\n      tag_13\n      jump\t// in\n    tag_12:\n      tag_14\n      jump\t// in\n    tag_11:\n      stop\n        /* \"Enums.sol\":309:732  function getColorChoice() public view returns (string memory) {... */\n    tag_5:\n      tag_15\n      tag_16\n      jump\t// in\n    tag_15:\n      mload(0x40)\n      tag_17\n      swap2\n      swap1\n      tag_18\n      jump\t// in\n    tag_17:\n      mload(0x40)\n      dup1\n      swap2\n      sub\n      swap1\n      return\n        /* \"Enums.sol\":738:849  function getAllChoices() public pure returns (string memory) {... */\n    tag_6:\n      tag_19\n      tag_20\n      jump\t// in\n    tag_19:\n      mload(0x40)\n      tag_21\n      swap2\n      swap1\n      tag_18\n      jump\t// in\n    tag_21:\n      mload(0x40)\n      dup1\n      swap2\n      sub\n      swap1\n      return\n        /* \"Enums.sol\":131:155  Color public colorChoice */\n    tag_8:\n      0x00\n      dup1\n      sload\n      swap1\n      0x0100\n      exp\n      swap1\n      div\n      0xff\n      and\n      dup2\n      jump\t// out\n        /* \"Enums.sol\":224:303  function selectColor(Color _color) public {... */\n    tag_14:\n        /* \"Enums.sol\":290:296  _color */\n      dup1\n        /* \"Enums.sol\":276:287  colorChoice */\n      0x00\n      dup1\n        /* \"Enums.sol\":276:296  colorChoice = _color */\n      0x0100\n      exp\n      dup2\n      sload\n      dup2\n      0xff\n      mul\n      not\n      and\n      swap1\n      dup4\n      0x03\n      dup2\n      gt\n      iszero\n      tag_23\n      jumpi\n      tag_24\n      tag_25\n      jump\t// in\n    tag_24:\n    tag_23:\n      mul\n      or\n      swap1\n      sstore\n      pop\n        /* \"Enums.sol\":224:303  function selectColor(Color _color) public {... */\n      pop\n      jump\t// out\n        /* \"Enums.sol\":309:732  function getColorChoice() public view returns (string memory) {... */\n    tag_16:\n        /* \"Enums.sol\":356:369  string memory */\n      0x60\n        /* \"Enums.sol\":400:410  Color.Blue */\n      0x00\n        /* \"Enums.sol\":385:410  colorChoice == Color.Blue */\n      0x03\n      dup2\n      gt\n      iszero\n      tag_27\n      jumpi\n      tag_28\n      tag_25\n      jump\t// in\n    tag_28:\n    tag_27:\n        /* \"Enums.sol\":385:396  colorChoice */\n      0x00\n      dup1\n      sload\n      swap1\n      0x0100\n      exp\n      swap1\n      div\n      0xff\n      and\n        /* \"Enums.sol\":385:410  colorChoice == Color.Blue */\n      0x03\n      dup2\n      gt\n      iszero\n      tag_29\n      jumpi\n      tag_30\n      tag_25\n      jump\t// in\n    tag_30:\n    tag_29:\n      sub\n        /* \"Enums.sol\":381:726  if (colorChoice == Color.Blue) {... */\n      tag_31\n      jumpi\n        /* \"Enums.sol\":426:439  return \"Blue\" */\n      mload(0x40)\n      dup1\n      0x40\n      add\n      0x40\n      mstore\n      dup1\n      0x04\n      dup2\n      mstore\n      0x20\n      add\n      0x426c756500000000000000000000000000000000000000000000000000000000\n      dup2\n      mstore\n      pop\n      swap1\n      pop\n      jump(tag_26)\n        /* \"Enums.sol\":381:726  if (colorChoice == Color.Blue) {... */\n    tag_31:\n        /* \"Enums.sol\":475:486  Color.Black */\n      0x01\n        /* \"Enums.sol\":460:486  colorChoice == Color.Black */\n      0x03\n      dup2\n      gt\n      iszero\n      tag_33\n      jumpi\n      tag_34\n      tag_25\n      jump\t// in\n    tag_34:\n    tag_33:\n        /* \"Enums.sol\":460:471  colorChoice */\n      0x00\n      dup1\n      sload\n      swap1\n      0x0100\n      exp\n      swap1\n      div\n      0xff\n      and\n        /* \"Enums.sol\":460:486  colorChoice == Color.Black */\n      0x03\n      dup2\n      gt\n      iszero\n      tag_35\n      jumpi\n      tag_36\n      tag_25\n      jump\t// in\n    tag_36:\n    tag_35:\n      sub\n        /* \"Enums.sol\":456:726  if (colorChoice == Color.Black) {... */\n      tag_37\n      jumpi\n        /* \"Enums.sol\":502:516  return \"Black\" */\n      mload(0x40)\n      dup1\n      0x40\n      add\n      0x40\n      mstore\n      dup1\n      0x05\n      dup2\n      mstore\n      0x20\n      add\n      0x426c61636b000000000000000000000000000000000000000000000000000000\n      dup2\n      mstore\n      pop\n      swap1\n      pop\n      jump(tag_26)\n        /* \"Enums.sol\":456:726  if (colorChoice == Color.Black) {... */\n    tag_37:\n        /* \"Enums.sol\":552:563  Color.White */\n      0x02\n        /* \"Enums.sol\":537:563  colorChoice == Color.White */\n      0x03\n      dup2\n      gt\n      iszero\n      tag_39\n      jumpi\n      tag_40\n      tag_25\n      jump\t// in\n    tag_40:\n    tag_39:\n        /* \"Enums.sol\":537:548  colorChoice */\n      0x00\n      dup1\n      sload\n      swap1\n      0x0100\n      exp\n      swap1\n      div\n      0xff\n      and\n        /* \"Enums.sol\":537:563  colorChoice == Color.White */\n      0x03\n      dup2\n      gt\n      iszero\n      tag_41\n      jumpi\n      tag_42\n      tag_25\n      jump\t// in\n    tag_42:\n    tag_41:\n      sub\n        /* \"Enums.sol\":533:726  if (colorChoice == Color.White) {... */\n      tag_43\n      jumpi\n        /* \"Enums.sol\":579:593  return \"White\" */\n      mload(0x40)\n      dup1\n      0x40\n      add\n      0x40\n      mstore\n      dup1\n      0x05\n      dup2\n      mstore\n      0x20\n      add\n      0x5768697465000000000000000000000000000000000000000000000000000000\n      dup2\n      mstore\n      pop\n      swap1\n      pop\n      jump(tag_26)\n        /* \"Enums.sol\":533:726  if (colorChoice == Color.White) {... */\n    tag_43:\n        /* \"Enums.sol\":629:639  Color.Pink */\n      0x03\n        /* \"Enums.sol\":614:639  colorChoice == Color.Pink */\n      dup1\n      dup2\n      gt\n      iszero\n      tag_45\n      jumpi\n      tag_46\n      tag_25\n      jump\t// in\n    tag_46:\n    tag_45:\n        /* \"Enums.sol\":614:625  colorChoice */\n      0x00\n      dup1\n      sload\n      swap1\n      0x0100\n      exp\n      swap1\n      div\n      0xff\n      and\n        /* \"Enums.sol\":614:639  colorChoice == Color.Pink */\n      0x03\n      dup2\n      gt\n      iszero\n      tag_47\n      jumpi\n      tag_48\n      tag_25\n      jump\t// in\n    tag_48:\n    tag_47:\n      sub\n        /* \"Enums.sol\":610:726  if (colorChoice == Color.Pink) {... */\n      tag_49\n      jumpi\n        /* \"Enums.sol\":655:668  return \"Pink\" */\n      mload(0x40)\n      dup1\n      0x40\n      add\n      0x40\n      mstore\n      dup1\n      0x04\n      dup2\n      mstore\n      0x20\n      add\n      0x50696e6b00000000000000000000000000000000000000000000000000000000\n      dup2\n      mstore\n      pop\n      swap1\n      pop\n      jump(tag_26)\n        /* \"Enums.sol\":610:726  if (colorChoice == Color.Pink) {... */\n    tag_49:\n        /* \"Enums.sol\":699:715  return \"Unknown\" */\n      mload(0x40)\n      dup1\n      0x40\n      add\n      0x40\n      mstore\n      dup1\n      0x07\n      dup2\n      mstore\n      0x20\n      add\n      0x556e6b6e6f776e00000000000000000000000000000000000000000000000000\n      dup2\n      mstore\n      pop\n      swap1\n      pop\n        /* \"Enums.sol\":309:732  function getColorChoice() public view returns (string memory) {... */\n    tag_26:\n      swap1\n      jump\t// out\n        /* \"Enums.sol\":738:849  function getAllChoices() public pure returns (string memory) {... */\n    tag_20:\n        /* \"Enums.sol\":784:797  string memory */\n      0x60\n        /* \"Enums.sol\":809:842  return \"Blue, Black, White, Pink\" */\n      mload(0x40)\n      dup1\n      0x40\n      add\n      0x40\n      mstore\n      dup1\n      0x18\n      dup2\n      mstore\n      0x20\n      add\n      0x426c75652c20426c61636b2c2057686974652c2050696e6b0000000000000000\n      dup2\n      mstore\n      pop\n      swap1\n      pop\n        /* \"Enums.sol\":738:849  function getAllChoices() public pure returns (string memory) {... */\n      swap1\n      jump\t// out\n        /* \"#utility.yul\":7:187   */\n    tag_25:\n        /* \"#utility.yul\":55:132   */\n      0x4e487b7100000000000000000000000000000000000000000000000000000000\n        /* \"#utility.yul\":52:53   */\n      0x00\n        /* \"#utility.yul\":45:133   */\n      mstore\n        /* \"#utility.yul\":152:156   */\n      0x21\n        /* \"#utility.yul\":149:150   */\n      0x04\n        /* \"#utility.yul\":142:157   */\n      mstore\n        /* \"#utility.yul\":176:180   */\n      0x24\n        /* \"#utility.yul\":173:174   */\n      0x00\n        /* \"#utility.yul\":166:181   */\n      revert\n        /* \"#utility.yul\":193:305   */\n    tag_52:\n        /* \"#utility.yul\":273:274   */\n      0x04\n        /* \"#utility.yul\":266:271   */\n      dup2\n        /* \"#utility.yul\":263:275   */\n      lt\n        /* \"#utility.yul\":253:299   */\n      tag_69\n      jumpi\n        /* \"#utility.yul\":279:297   */\n      tag_70\n      tag_25\n      jump\t// in\n    tag_70:\n        /* \"#utility.yul\":253:299   */\n    tag_69:\n        /* \"#utility.yul\":193:305   */\n      pop\n      jump\t// out\n        /* \"#utility.yul\":311:436   */\n    tag_53:\n        /* \"#utility.yul\":355:362   */\n      0x00\n        /* \"#utility.yul\":384:389   */\n      dup2\n        /* \"#utility.yul\":373:389   */\n      swap1\n      pop\n        /* \"#utility.yul\":390:430   */\n      tag_72\n        /* \"#utility.yul\":424:429   */\n      dup3\n        /* \"#utility.yul\":390:430   */\n      tag_52\n      jump\t// in\n    tag_72:\n        /* \"#utility.yul\":311:436   */\n      swap2\n      swap1\n      pop\n      jump\t// out\n        /* \"#utility.yul\":442:567   */\n    tag_54:\n        /* \"#utility.yul\":497:506   */\n      0x00\n        /* \"#utility.yul\":530:561   */\n      tag_74\n        /* \"#utility.yul\":555:560   */\n      dup3\n        /* \"#utility.yul\":530:561   */\n      tag_53\n      jump\t// in\n    tag_74:\n        /* \"#utility.yul\":517:561   */\n      swap1\n      pop\n        /* \"#utility.yul\":442:567   */\n      swap2\n      swap1\n      pop\n      jump\t// out\n        /* \"#utility.yul\":573:714   */\n    tag_55:\n        /* \"#utility.yul\":665:707   */\n      tag_76\n        /* \"#utility.yul\":701:706   */\n      dup2\n        /* \"#utility.yul\":665:707   */\n      tag_54\n      jump\t// in\n    tag_76:\n        /* \"#utility.yul\":660:663   */\n      dup3\n        /* \"#utility.yul\":653:708   */\n      mstore\n        /* \"#utility.yul\":573:714   */\n      pop\n      pop\n      jump\t// out\n        /* \"#utility.yul\":720:952   */\n    tag_10:\n        /* \"#utility.yul\":818:822   */\n      0x00\n        /* \"#utility.yul\":856:858   */\n      0x20\n        /* \"#utility.yul\":845:854   */\n      dup3\n        /* \"#utility.yul\":841:859   */\n      add\n        /* \"#utility.yul\":833:859   */\n      swap1\n      pop\n        /* \"#utility.yul\":869:945   */\n      tag_78\n        /* \"#utility.yul\":942:943   */\n      0x00\n        /* \"#utility.yul\":931:940   */\n      dup4\n        /* \"#utility.yul\":927:944   */\n      add\n        /* \"#utility.yul\":918:924   */\n      dup5\n        /* \"#utility.yul\":869:945   */\n      tag_55\n      jump\t// in\n    tag_78:\n        /* \"#utility.yul\":720:952   */\n      swap3\n      swap2\n      pop\n      pop\n      jump\t// out\n        /* \"#utility.yul\":1039:1156   */\n    tag_57:\n        /* \"#utility.yul\":1148:1149   */\n      0x00\n        /* \"#utility.yul\":1145:1146   */\n      dup1\n        /* \"#utility.yul\":1138:1150   */\n      revert\n        /* \"#utility.yul\":1285:1391   */\n    tag_59:\n        /* \"#utility.yul\":1365:1366   */\n      0x04\n        /* \"#utility.yul\":1358:1363   */\n      dup2\n        /* \"#utility.yul\":1355:1367   */\n      lt\n        /* \"#utility.yul\":1345:1385   */\n      tag_83\n      jumpi\n        /* \"#utility.yul\":1381:1382   */\n      0x00\n        /* \"#utility.yul\":1378:1379   */\n      dup1\n        /* \"#utility.yul\":1371:1383   */\n      revert\n        /* \"#utility.yul\":1345:1385   */\n    tag_83:\n        /* \"#utility.yul\":1285:1391   */\n      pop\n      jump\t// out\n        /* \"#utility.yul\":1397:1550   */\n    tag_60:\n        /* \"#utility.yul\":1450:1455   */\n      0x00\n        /* \"#utility.yul\":1488:1494   */\n      dup2\n        /* \"#utility.yul\":1475:1495   */\n      calldataload\n        /* \"#utility.yul\":1466:1495   */\n      swap1\n      pop\n        /* \"#utility.yul\":1504:1544   */\n      tag_85\n        /* \"#utility.yul\":1538:1543   */\n      dup2\n        /* \"#utility.yul\":1504:1544   */\n      tag_59\n      jump\t// in\n    tag_85:\n        /* \"#utility.yul\":1397:1550   */\n      swap3\n      swap2\n      pop\n      pop\n      jump\t// out\n        /* \"#utility.yul\":1556:1899   */\n    tag_13:\n        /* \"#utility.yul\":1622:1628   */\n      0x00\n        /* \"#utility.yul\":1671:1673   */\n      0x20\n        /* \"#utility.yul\":1659:1668   */\n      dup3\n        /* \"#utility.yul\":1650:1657   */\n      dup5\n        /* \"#utility.yul\":1646:1669   */\n      sub\n        /* \"#utility.yul\":1642:1674   */\n      slt\n        /* \"#utility.yul\":1639:1758   */\n      iszero\n      tag_87\n      jumpi\n        /* \"#utility.yul\":1677:1756   */\n      tag_88\n      tag_57\n      jump\t// in\n    tag_88:\n        /* \"#utility.yul\":1639:1758   */\n    tag_87:\n        /* \"#utility.yul\":1797:1798   */\n      0x00\n        /* \"#utility.yul\":1822:1882   */\n      tag_89\n        /* \"#utility.yul\":1874:1881   */\n      dup5\n        /* \"#utility.yul\":1865:1871   */\n      dup3\n        /* \"#utility.yul\":1854:1863   */\n      dup6\n        /* \"#utility.yul\":1850:1872   */\n      add\n        /* \"#utility.yul\":1822:1882   */\n      tag_60\n      jump\t// in\n    tag_89:\n        /* \"#utility.yul\":1812:1882   */\n      swap2\n      pop\n        /* \"#utility.yul\":1768:1892   */\n      pop\n        /* \"#utility.yul\":1556:1899   */\n      swap3\n      swap2\n      pop\n      pop\n      jump\t// out\n        /* \"#utility.yul\":1905:2004   */\n    tag_61:\n        /* \"#utility.yul\":1957:1963   */\n      0x00\n        /* \"#utility.yul\":1991:1996   */\n      dup2\n        /* \"#utility.yul\":1985:1997   */\n      mload\n        /* \"#utility.yul\":1975:1997   */\n      swap1\n      pop\n        /* \"#utility.yul\":1905:2004   */\n      swap2\n      swap1\n      pop\n      jump\t// out\n        /* \"#utility.yul\":2010:2179   */\n    tag_62:\n        /* \"#utility.yul\":2094:2105   */\n      0x00\n        /* \"#utility.yul\":2128:2134   */\n      dup3\n        /* \"#utility.yul\":2123:2126   */\n      dup3\n        /* \"#utility.yul\":2116:2135   */\n      mstore\n        /* \"#utility.yul\":2168:2172   */\n      0x20\n        /* \"#utility.yul\":2163:2166   */\n      dup3\n        /* \"#utility.yul\":2159:2173   */\n      add\n        /* \"#utility.yul\":2144:2173   */\n      swap1\n      pop\n        /* \"#utility.yul\":2010:2179   */\n      swap3\n      swap2\n      pop\n      pop\n      jump\t// out\n        /* \"#utility.yul\":2185:2324   */\n    tag_63:\n        /* \"#utility.yul\":2274:2280   */\n      dup3\n        /* \"#utility.yul\":2269:2272   */\n      dup2\n        /* \"#utility.yul\":2264:2267   */\n      dup4\n        /* \"#utility.yul\":2258:2281   */\n      mcopy\n        /* \"#utility.yul\":2315:2316   */\n      0x00\n        /* \"#utility.yul\":2306:2312   */\n      dup4\n        /* \"#utility.yul\":2301:2304   */\n      dup4\n        /* \"#utility.yul\":2297:2313   */\n      add\n        /* \"#utility.yul\":2290:2317   */\n      mstore\n        /* \"#utility.yul\":2185:2324   */\n      pop\n      pop\n      pop\n      jump\t// out\n        /* \"#utility.yul\":2330:2432   */\n    tag_64:\n        /* \"#utility.yul\":2371:2377   */\n      0x00\n        /* \"#utility.yul\":2422:2424   */\n      0x1f\n        /* \"#utility.yul\":2418:2425   */\n      not\n        /* \"#utility.yul\":2413:2415   */\n      0x1f\n        /* \"#utility.yul\":2406:2411   */\n      dup4\n        /* \"#utility.yul\":2402:2416   */\n      add\n        /* \"#utility.yul\":2398:2426   */\n      and\n        /* \"#utility.yul\":2388:2426   */\n      swap1\n      pop\n        /* \"#utility.yul\":2330:2432   */\n      swap2\n      swap1\n      pop\n      jump\t// out\n        /* \"#utility.yul\":2438:2815   */\n    tag_65:\n        /* \"#utility.yul\":2526:2529   */\n      0x00\n        /* \"#utility.yul\":2554:2593   */\n      tag_95\n        /* \"#utility.yul\":2587:2592   */\n      dup3\n        /* \"#utility.yul\":2554:2593   */\n      tag_61\n      jump\t// in\n    tag_95:\n        /* \"#utility.yul\":2609:2680   */\n      tag_96\n        /* \"#utility.yul\":2673:2679   */\n      dup2\n        /* \"#utility.yul\":2668:2671   */\n      dup6\n        /* \"#utility.yul\":2609:2680   */\n      tag_62\n      jump\t// in\n    tag_96:\n        /* \"#utility.yul\":2602:2680   */\n      swap4\n      pop\n        /* \"#utility.yul\":2689:2754   */\n      tag_97\n        /* \"#utility.yul\":2747:2753   */\n      dup2\n        /* \"#utility.yul\":2742:2745   */\n      dup6\n        /* \"#utility.yul\":2735:2739   */\n      0x20\n        /* \"#utility.yul\":2728:2733   */\n      dup7\n        /* \"#utility.yul\":2724:2740   */\n      add\n        /* \"#utility.yul\":2689:2754   */\n      tag_63\n      jump\t// in\n    tag_97:\n        /* \"#utility.yul\":2779:2808   */\n      tag_98\n        /* \"#utility.yul\":2801:2807   */\n      dup2\n        /* \"#utility.yul\":2779:2808   */\n      tag_64\n      jump\t// in\n    tag_98:\n        /* \"#utility.yul\":2774:2777   */\n      dup5\n        /* \"#utility.yul\":2770:2809   */\n      add\n        /* \"#utility.yul\":2763:2809   */\n      swap2\n      pop\n        /* \"#utility.yul\":2530:2815   */\n      pop\n        /* \"#utility.yul\":2438:2815   */\n      swap3\n      swap2\n      pop\n      pop\n      jump\t// out\n        /* \"#utility.yul\":2821:3134   */\n    tag_18:\n        /* \"#utility.yul\":2934:2938   */\n      0x00\n        /* \"#utility.yul\":2972:2974   */\n      0x20\n        /* \"#utility.yul\":2961:2970   */\n      dup3\n        /* \"#utility.yul\":2957:2975   */\n      add\n        /* \"#utility.yul\":2949:2975   */\n      swap1\n      pop\n        /* \"#utility.yul\":3021:3030   */\n      dup2\n        /* \"#utility.yul\":3015:3019   */\n      dup2\n        /* \"#utility.yul\":3011:3031   */\n      sub\n        /* \"#utility.yul\":3007:3008   */\n      0x00\n        /* \"#utility.yul\":2996:3005   */\n      dup4\n        /* \"#utility.yul\":2992:3009   */\n      add\n        /* \"#utility.yul\":2985:3032   */\n      mstore\n        /* \"#utility.yul\":3049:3127   */\n      tag_100\n        /* \"#utility.yul\":3122:3126   */\n      dup2\n        /* \"#utility.yul\":3113:3119   */\n      dup5\n        /* \"#utility.yul\":3049:3127   */\n      tag_65\n      jump\t// in\n    tag_100:\n        /* \"#utility.yul\":3041:3127   */\n      swap1\n      pop\n        /* \"#utility.yul\":2821:3134   */\n      swap3\n      swap2\n      pop\n      pop\n      jump\t// out\n\n    auxdata: 0xa2646970667358221220130557c937f135ca9d0609bda974aaa489e765d65c6fcb3e8caffca0f21aab0e64736f6c634300081a0033\n}\n",
				"bytecode": {
					"linkReferences": {},
					"object": "6080604052348015600e575f80fd5b5060025f806101000a81548160ff02191690836003811115603057602f6039565b5b02179055506066565b7f4e487b71000000000000000000000000000000000000000000000000000000005f52602160045260245ffd5b6104f0806100735f395ff3fe608060405234801561000f575f80fd5b506004361061004a575f3560e01c80634f10e0381461004e57806373eb6b701461006c5780637e23857d14610088578063e97995dc146100a6575b5f80fd5b6100566100c4565b60405161006391906103bf565b60405180910390f35b610086600480360381019061008191906103ff565b6100d4565b005b6100906100ff565b60405161009d919061049a565b60405180910390f35b6100ae61030f565b6040516100bb919061049a565b60405180910390f35b5f8054906101000a900460ff1681565b805f806101000a81548160ff021916908360038111156100f7576100f661034c565b5b021790555050565b60605f60038111156101145761011361034c565b5b5f8054906101000a900460ff1660038111156101335761013261034c565b5b03610175576040518060400160405280600481526020017f426c756500000000000000000000000000000000000000000000000000000000815250905061030c565b600160038111156101895761018861034c565b5b5f8054906101000a900460ff1660038111156101a8576101a761034c565b5b036101ea576040518060400160405280600581526020017f426c61636b000000000000000000000000000000000000000000000000000000815250905061030c565b600260038111156101fe576101fd61034c565b5b5f8054906101000a900460ff16600381111561021d5761021c61034c565b5b0361025f576040518060400160405280600581526020017f5768697465000000000000000000000000000000000000000000000000000000815250905061030c565b6003808111156102725761027161034c565b5b5f8054906101000a900460ff1660038111156102915761029061034c565b5b036102d3576040518060400160405280600481526020017f50696e6b00000000000000000000000000000000000000000000000000000000815250905061030c565b6040518060400160405280600781526020017f556e6b6e6f776e0000000000000000000000000000000000000000000000000081525090505b90565b60606040518060400160405280601881526020017f426c75652c20426c61636b2c2057686974652c2050696e6b0000000000000000815250905090565b7f4e487b71000000000000000000000000000000000000000000000000000000005f52602160045260245ffd5b6004811061038a5761038961034c565b5b50565b5f81905061039a82610379565b919050565b5f6103a98261038d565b9050919050565b6103b98161039f565b82525050565b5f6020820190506103d25f8301846103b0565b92915050565b5f80fd5b600481106103e8575f80fd5b50565b5f813590506103f9816103dc565b92915050565b5f60208284031215610414576104136103d8565b5b5f610421848285016103eb565b91505092915050565b5f81519050919050565b5f82825260208201905092915050565b8281835e5f83830152505050565b5f601f19601f8301169050919050565b5f61046c8261042a565b6104768185610434565b9350610486818560208601610444565b61048f81610452565b840191505092915050565b5f6020820190508181035f8301526104b28184610462565b90509291505056fea2646970667358221220130557c937f135ca9d0609bda974aaa489e765d65c6fcb3e8caffca0f21aab0e64736f6c634300081a0033",
					"opcodes": "PUSH1 0x80 PUSH1 0x40 MSTORE CALLVALUE DUP1 ISZERO PUSH1 0xE JUMPI PUSH0 DUP1 REVERT JUMPDEST POP PUSH1 0x2 PUSH0 DUP1 PUSH2 0x100 EXP DUP2 SLOAD DUP2 PUSH1 0xFF MUL NOT AND SWAP1 DUP4 PUSH1 0x3 DUP2 GT ISZERO PUSH1 0x30 JUMPI PUSH1 0x2F PUSH1 0x39 JUMP JUMPDEST JUMPDEST MUL OR SWAP1 SSTORE POP PUSH1 0x66 JUMP JUMPDEST PUSH32 0x4E487B7100000000000000000000000000000000000000000000000000000000 PUSH0 MSTORE PUSH1 0x21 PUSH1 0x4 MSTORE PUSH1 0x24 PUSH0 REVERT JUMPDEST PUSH2 0x4F0 DUP1 PUSH2 0x73 PUSH0 CODECOPY PUSH0 RETURN INVALID PUSH1 0x80 PUSH1 0x40 MSTORE CALLVALUE DUP1 ISZERO PUSH2 0xF JUMPI PUSH0 DUP1 REVERT JUMPDEST POP PUSH1 0x4 CALLDATASIZE LT PUSH2 0x4A JUMPI PUSH0 CALLDATALOAD PUSH1 0xE0 SHR DUP1 PUSH4 0x4F10E038 EQ PUSH2 0x4E JUMPI DUP1 PUSH4 0x73EB6B70 EQ PUSH2 0x6C JUMPI DUP1 PUSH4 0x7E23857D EQ PUSH2 0x88 JUMPI DUP1 PUSH4 0xE97995DC EQ PUSH2 0xA6 JUMPI JUMPDEST PUSH0 DUP1 REVERT JUMPDEST PUSH2 0x56 PUSH2 0xC4 JUMP JUMPDEST PUSH1 0x40 MLOAD PUSH2 0x63 SWAP2 SWAP1 PUSH2 0x3BF JUMP JUMPDEST PUSH1 0x40 MLOAD DUP1 SWAP2 SUB SWAP1 RETURN JUMPDEST PUSH2 0x86 PUSH1 0x4 DUP1 CALLDATASIZE SUB DUP2 ADD SWAP1 PUSH2 0x81 SWAP2 SWAP1 PUSH2 0x3FF JUMP JUMPDEST PUSH2 0xD4 JUMP JUMPDEST STOP JUMPDEST PUSH2 0x90 PUSH2 0xFF JUMP JUMPDEST PUSH1 0x40 MLOAD PUSH2 0x9D SWAP2 SWAP1 PUSH2 0x49A JUMP JUMPDEST PUSH1 0x40 MLOAD DUP1 SWAP2 SUB SWAP1 RETURN JUMPDEST PUSH2 0xAE PUSH2 0x30F JUMP JUMPDEST PUSH1 0x40 MLOAD PUSH2 0xBB SWAP2 SWAP1 PUSH2 0x49A JUMP JUMPDEST PUSH1 0x40 MLOAD DUP1 SWAP2 SUB SWAP1 RETURN JUMPDEST PUSH0 DUP1 SLOAD SWAP1 PUSH2 0x100 EXP SWAP1 DIV PUSH1 0xFF AND DUP2 JUMP JUMPDEST DUP1 PUSH0 DUP1 PUSH2 0x100 EXP DUP2 SLOAD DUP2 PUSH1 0xFF MUL NOT AND SWAP1 DUP4 PUSH1 0x3 DUP2 GT ISZERO PUSH2 0xF7 JUMPI PUSH2 0xF6 PUSH2 0x34C JUMP JUMPDEST JUMPDEST MUL OR SWAP1 SSTORE POP POP JUMP JUMPDEST PUSH1 0x60 PUSH0 PUSH1 0x3 DUP2 GT ISZERO PUSH2 0x114 JUMPI PUSH2 0x113 PUSH2 0x34C JUMP JUMPDEST JUMPDEST PUSH0 DUP1 SLOAD SWAP1 PUSH2 0x100 EXP SWAP1 DIV PUSH1 0xFF AND PUSH1 0x3 DUP2 GT ISZERO PUSH2 0x133 JUMPI PUSH2 0x132 PUSH2 0x34C JUMP JUMPDEST JUMPDEST SUB PUSH2 0x175 JUMPI PUSH1 0x40 MLOAD DUP1 PUSH1 0x40 ADD PUSH1 0x40 MSTORE DUP1 PUSH1 0x4 DUP2 MSTORE PUSH1 0x20 ADD PUSH32 0x426C756500000000000000000000000000000000000000000000000000000000 DUP2 MSTORE POP SWAP1 POP PUSH2 0x30C JUMP JUMPDEST PUSH1 0x1 PUSH1 0x3 DUP2 GT ISZERO PUSH2 0x189 JUMPI PUSH2 0x188 PUSH2 0x34C JUMP JUMPDEST JUMPDEST PUSH0 DUP1 SLOAD SWAP1 PUSH2 0x100 EXP SWAP1 DIV PUSH1 0xFF AND PUSH1 0x3 DUP2 GT ISZERO PUSH2 0x1A8 JUMPI PUSH2 0x1A7 PUSH2 0x34C JUMP JUMPDEST JUMPDEST SUB PUSH2 0x1EA JUMPI PUSH1 0x40 MLOAD DUP1 PUSH1 0x40 ADD PUSH1 0x40 MSTORE DUP1 PUSH1 0x5 DUP2 MSTORE PUSH1 0x20 ADD PUSH32 0x426C61636B000000000000000000000000000000000000000000000000000000 DUP2 MSTORE POP SWAP1 POP PUSH2 0x30C JUMP JUMPDEST PUSH1 0x2 PUSH1 0x3 DUP2 GT ISZERO PUSH2 0x1FE JUMPI PUSH2 0x1FD PUSH2 0x34C JUMP JUMPDEST JUMPDEST PUSH0 DUP1 SLOAD SWAP1 PUSH2 0x100 EXP SWAP1 DIV PUSH1 0xFF AND PUSH1 0x3 DUP2 GT ISZERO PUSH2 0x21D JUMPI PUSH2 0x21C PUSH2 0x34C JUMP JUMPDEST JUMPDEST SUB PUSH2 0x25F JUMPI PUSH1 0x40 MLOAD DUP1 PUSH1 0x40 ADD PUSH1 0x40 MSTORE DUP1 PUSH1 0x5 DUP2 MSTORE PUSH1 0x20 ADD PUSH32 0x5768697465000000000000000000000000000000000000000000000000000000 DUP2 MSTORE POP SWAP1 POP PUSH2 0x30C JUMP JUMPDEST PUSH1 0x3 DUP1 DUP2 GT ISZERO PUSH2 0x272 JUMPI PUSH2 0x271 PUSH2 0x34C JUMP JUMPDEST JUMPDEST PUSH0 DUP1 SLOAD SWAP1 PUSH2 0x100 EXP SWAP1 DIV PUSH1 0xFF AND PUSH1 0x3 DUP2 GT ISZERO PUSH2 0x291 JUMPI PUSH2 0x290 PUSH2 0x34C JUMP JUMPDEST JUMPDEST SUB PUSH2 0x2D3 JUMPI PUSH1 0x40 MLOAD DUP1 PUSH1 0x40 ADD PUSH1 0x40 MSTORE DUP1 PUSH1 0x4 DUP2 MSTORE PUSH1 0x20 ADD PUSH32 0x50696E6B00000000000000000000000000000000000000000000000000000000 DUP2 MSTORE POP SWAP1 POP PUSH2 0x30C JUMP JUMPDEST PUSH1 0x40 MLOAD DUP1 PUSH1 0x40 ADD PUSH1 0x40 MSTORE DUP1 PUSH1 0x7 DUP2 MSTORE PUSH1 0x20 ADD PUSH32 0x556E6B6E6F776E00000000000000000000000000000000000000000000000000 DUP2 MSTORE POP SWAP1 POP JUMPDEST SWAP1 JUMP JUMPDEST PUSH1 0x60 PUSH1 0x40 MLOAD DUP1 PUSH1 0x40 ADD PUSH1 0x40 MSTORE DUP1 PUSH1 0x18 DUP2 MSTORE PUSH1 0x20 ADD PUSH32 0x426C75652C20426C61636B2C2057686974652C2050696E6B0000000000000000 DUP2 MSTORE POP SWAP1 POP SWAP1 JUMP JUMPDEST PUSH32 0x4E487B7100000000000000000000000000000000000000000000000000000000 PUSH0 MSTORE PUSH1 0x21 PUSH1 0x4 MSTORE PUSH1 0x24 PUSH0 REVERT JUMPDEST PUSH1 0x4 DUP2 LT PUSH2 0x38A JUMPI PUSH2 0x389 PUSH2 0x34C JUMP JUMPDEST JUMPDEST POP JUMP JUMPDEST PUSH0 DUP2 SWAP1 POP PUSH2 0x39A DUP3 PUSH2 0x379 JUMP JUMPDEST SWAP2 SWAP1 POP JUMP JUMPDEST PUSH0 PUSH2 0x3A9 DUP3 PUSH2 0x38D JUMP JUMPDEST SWAP1 POP SWAP2 SWAP1 POP JUMP JUMPDEST PUSH2 0x3B9 DUP2 PUSH2 0x39F JUMP JUMPDEST DUP3 MSTORE POP POP JUMP JUMPDEST PUSH0 PUSH1 0x20 DUP3 ADD SWAP1 POP PUSH2 0x3D2 PUSH0 DUP4 ADD DUP5 PUSH2 0x3B0 JUMP JUMPDEST SWAP3 SWAP2 POP POP JUMP JUMPDEST PUSH0 DUP1 REVERT JUMPDEST PUSH1 0x4 DUP2 LT PUSH2 0x3E8 JUMPI PUSH0 DUP1 REVERT JUMPDEST POP JUMP JUMPDEST PUSH0 DUP2 CALLDATALOAD SWAP1 POP PUSH2 0x3F9 DUP2 PUSH2 0x3DC JUMP JUMPDEST SWAP3 SWAP2 POP POP JUMP JUMPDEST PUSH0 PUSH1 0x20 DUP3 DUP5 SUB SLT ISZERO PUSH2 0x414 JUMPI PUSH2 0x413 PUSH2 0x3D8 JUMP JUMPDEST JUMPDEST PUSH0 PUSH2 0x421 DUP5 DUP3 DUP6 ADD PUSH2 0x3EB JUMP JUMPDEST SWAP2 POP POP SWAP3 SWAP2 POP POP JUMP JUMPDEST PUSH0 DUP2 MLOAD SWAP1 POP SWAP2 SWAP1 POP JUMP JUMPDEST PUSH0 DUP3 DUP3 MSTORE PUSH1 0x20 DUP3 ADD SWAP1 POP SWAP3 SWAP2 POP POP JUMP JUMPDEST DUP3 DUP2 DUP4 MCOPY PUSH0 DUP4 DUP4 ADD MSTORE POP POP POP JUMP JUMPDEST PUSH0 PUSH1 0x1F NOT PUSH1 0x1F DUP4 ADD AND SWAP1 POP SWAP2 SWAP1 POP JUMP JUMPDEST PUSH0 PUSH2 0x46C DUP3 PUSH2 0x42A JUMP JUMPDEST PUSH2 0x476 DUP2 DUP6 PUSH2 0x434 JUMP JUMPDEST SWAP4 POP PUSH2 0x486 DUP2 DUP6 PUSH1 0x20 DUP7 ADD PUSH2 0x444 JUMP JUMPDEST PUSH2 0x48F DUP2 PUSH2 0x452 JUMP JUMPDEST DUP5 ADD SWAP2 POP POP SWAP3 SWAP2 POP POP JUMP JUMPDEST PUSH0 PUSH1 0x20 DUP3 ADD SWAP1 POP DUP2 DUP2 SUB PUSH0 DUP4 ADD MSTORE PUSH2 0x4B2 DUP2 DUP5 PUSH2 0x462 JUMP JUMPDEST SWAP1 POP SWAP3 SWAP2 POP POP JUMP INVALID LOG2 PUSH5 0x6970667358 0x22 SLT KECCAK256 SGT SDIV JUMPI 0xC9 CALLDATACOPY CALL CALLDATALOAD 0xCA SWAP14 MOD MULMOD 0xBD 0xA9 PUSH21 0xAAA489E765D65C6FCB3E8CAFFCA0F21AAB0E64736F PUSH13 0x634300081A0033000000000000 "
				},
				"gasEstimates": {
					"creation": {
						"codeDepositCost": "252800",
						"executionCost": "24590",
						"totalCost": "277390"
					},
					"external": {
						"colorChoice()": "2529",
						"getAllChoices()": "infinite",
						"getColorChoice()": "infinite",
						"selectColor(uint8)": "24645"
					}
				},
				"methodIdentifiers": {
					"colorChoice()": "4f10e038",
					"getAllChoices()": "e97995dc",
					"getColorChoice()": "7e23857d",
					"selectColor(uint8)": "73eb6b70"
				}
			},
			"storageLayout": {
				"storage": [
					{
						"astId": 9,
						"contract": "Enums.sol:ColorPalette",
						"label": "colorChoice",
						"offset": 0,
						"slot": "0",
						"type": "t_enum(Color)6"
					}
				],
				"types": {
					"t_enum(Color)6": {
						"encoding": "inplace",
						"label": "enum ColorPalette.Color",
						"numberOfBytes": "1"
					}
				}
			},
			"userdoc": {
				"kind": "user",
				"methods": {},
				"version": 1
			}
		}
	}
}