{
	"ColorPalette.sol": {
		"ColorPalette": {
			"abi": [
				{
					"inputs": [],
					"stateMutability": "nonpayable",
					"type": "constructor"
				},
				{
					"inputs": [],
					"name": "colorChoice",
					"outputs": [
						{
							"internalType": "enum ColorPalette.Color",
							"name": "",
							"type": "uint8"
						}
					],
					"stateMutability": "view",
					"type": "function"
				},
				{
					"inputs": [],
					"name": "getAllChoices",
					"outputs": [
						{
							"internalType": "string",
							"name": "",
							"type": "string"
						}
					],
					"stateMutability": "pure",
					"type": "function"
				},
				{
					"inputs": [],
					"name": "getColorChoice",
					"outputs": [
						{
							"internalType": "string",
							"name": "",
							"type": "string"
						}
					],
					"stateMutability": "view",
					"type": "function"
				},
				{
					"inputs": [
						{
							"internalType": "enum ColorPalette.Color",
							"name": "_color",
							"type": "uint8"
						}
					],
					"name": "selectColor",
					"outputs": [],
					"stateMutability": "nonpayable",
					"type": "function"
				}
			],
			"devdoc": {
				"kind": "dev",
				"methods": {},
				"version": 1
			},
			"evm": {
				"assembly": "    /* \"ColorPalette.sol\":57:851  contract ColorPalette {... */\n  mstore(0x40, 0x80)\n    /* \"ColorPalette.sol\":162:218  constructor() {... */\n  callvalue\n  dup1\n  iszero\n  tag_1\n  jumpi\n  0x00\n  dup1\n  revert\ntag_1:\n  pop\n    /* \"ColorPalette.sol\":200:211  Color.White */\n  0x02\n    /* \"ColorPalette.sol\":186:197  colorChoice */\n  0x00\n  dup1\n    /* \"ColorPalette.sol\":186:211  colorChoice = Color.White */\n  0x0100\n  exp\n  dup2\n  sload\n  dup2\n  0xff\n  mul\n  not\n  and\n  swap1\n  dup4\n  0x03\n  dup2\n  gt\n  iszero\n  tag_4\n  jumpi\n  mstore(0x00, 0x4e487b7100000000000000000000000000000000000000000000000000000000)\n  mstore(0x04, 0x21)\n  revert(0x00, 0x24)\ntag_4:\n  mul\n  or\n  swap1\n  sstore\n  pop\n    /* \"ColorPalette.sol\":57:851  contract ColorPalette {... */\n  dataSize(sub_0)\n  dup1\n  dataOffset(sub_0)\n  0x00\n  codecopy\n  0x00\n  return\nstop\n\nsub_0: assembly {\n        /* \"ColorPalette.sol\":57:851  contract ColorPalette {... */\n      mstore(0x40, 0x80)\n      callvalue\n      dup1\n      iszero\n      tag_1\n      jumpi\n      0x00\n      dup1\n      revert\n    tag_1:\n      pop\n      jumpi(tag_2, lt(calldatasize, 0x04))\n      shr(0xe0, calldataload(0x00))\n      dup1\n      0x4f10e038\n      eq\n      tag_3\n      jumpi\n      dup1\n      0x73eb6b70\n      eq\n      tag_4\n      jumpi\n      dup1\n      0x7e23857d\n      eq\n      tag_5\n      jumpi\n      dup1\n      0xe97995dc\n      eq\n      tag_6\n      jumpi\n    tag_2:\n      0x00\n      dup1\n      revert\n        /* \"ColorPalette.sol\":131:155  Color public colorChoice */\n    tag_3:\n      tag_7\n      tag_8\n      jump\t// in\n    tag_7:\n      mload(0x40)\n      tag_9\n      swap2\n      swap1\n      tag_10\n      jump\t// in\n    tag_9:\n      mload(0x40)\n      dup1\n      swap2\n      sub\n      swap1\n      return\n        /* \"ColorPalette.sol\":224:303  function selectColor(Color _color) public {... */\n    tag_4:\n      tag_11\n      0x04\n      dup1\n      calldatasize\n      sub\n      dup2\n      add\n      swap1\n      tag_12\n      swap2\n      swap1\n      tag_13\n      jump\t// in\n    tag_12:\n      tag_14\n      jump\t// in\n    tag_11:\n      stop\n        /* \"ColorPalette.sol\":309:732  function getColorChoice() public view returns (string memory) {... */\n    tag_5:\n      tag_15\n      tag_16\n      jump\t// in\n    tag_15:\n      mload(0x40)\n      tag_17\n      swap2\n      swap1\n      tag_18\n      jump\t// in\n    tag_17:\n      mload(0x40)\n      dup1\n      swap2\n      sub\n      swap1\n      return\n        /* \"ColorPalette.sol\":738:849  function getAllChoices() public pure returns (string memory) {... */\n    tag_6:\n      tag_19\n      tag_20\n      jump\t// in\n    tag_19:\n      mload(0x40)\n      tag_21\n      swap2\n      swap1\n      tag_18\n      jump\t// in\n    tag_21:\n      mload(0x40)\n      dup1\n      swap2\n      sub\n      swap1\n      return\n        /* \"ColorPalette.sol\":131:155  Color public colorChoice */\n    tag_8:\n      0x00\n      dup1\n      sload\n      swap1\n      0x0100\n      exp\n      swap1\n      div\n      0xff\n      and\n      dup2\n      jump\t// out\n        /* \"ColorPalette.sol\":224:303  function selectColor(Color _color) public {... */\n    tag_14:\n        /* \"ColorPalette.sol\":290:296  _color */\n      dup1\n        /* \"ColorPalette.sol\":276:287  colorChoice */\n      0x00\n      dup1\n        /* \"ColorPalette.sol\":276:296  colorChoice = _color */\n      0x0100\n      exp\n      dup2\n      sload\n      dup2\n      0xff\n      mul\n      not\n      and\n      swap1\n      dup4\n      0x03\n      dup2\n      gt\n      iszero\n      tag_23\n      jumpi\n      mstore(0x00, 0x4e487b7100000000000000000000000000000000000000000000000000000000)\n      mstore(0x04, 0x21)\n      revert(0x00, 0x24)\n    tag_23:\n      mul\n      or\n      swap1\n      sstore\n      pop\n        /* \"ColorPalette.sol\":224:303  function selectColor(Color _color) public {... */\n      pop\n      jump\t// out\n        /* \"ColorPalette.sol\":309:732  function getColorChoice() public view returns (string memory) {... */\n    tag_16:\n        /* \"ColorPalette.sol\":356:369  string memory */\n      0x60\n        /* \"ColorPalette.sol\":400:410  Color.Blue */\n      0x00\n        /* \"ColorPalette.sol\":385:410  colorChoice == Color.Blue */\n      0x03\n      dup2\n      gt\n      iszero\n      tag_25\n      jumpi\n      mstore(0x00, 0x4e487b7100000000000000000000000000000000000000000000000000000000)\n      mstore(0x04, 0x21)\n      revert(0x00, 0x24)\n    tag_25:\n        /* \"ColorPalette.sol\":385:396  colorChoice */\n      0x00\n      dup1\n      sload\n      swap1\n      0x0100\n      exp\n      swap1\n      div\n      0xff\n      and\n        /* \"ColorPalette.sol\":385:410  colorChoice == Color.Blue */\n      0x03\n      dup2\n      gt\n      iszero\n      tag_26\n      jumpi\n      mstore(0x00, 0x4e487b7100000000000000000000000000000000000000000000000000000000)\n      mstore(0x04, 0x21)\n      revert(0x00, 0x24)\n    tag_26:\n      eq\n        /* \"ColorPalette.sol\":381:726  if (colorChoice == Color.Blue) {... */\n      iszero\n      tag_27\n      jumpi\n        /* \"ColorPalette.sol\":426:439  return \"Blue\" */\n      mload(0x40)\n      dup1\n      0x40\n      add\n      0x40\n      mstore\n      dup1\n      0x04\n      dup2\n      mstore\n      0x20\n      add\n      0x426c756500000000000000000000000000000000000000000000000000000000\n      dup2\n      mstore\n      pop\n      swap1\n      pop\n      jump(tag_24)\n        /* \"ColorPalette.sol\":381:726  if (colorChoice == Color.Blue) {... */\n    tag_27:\n        /* \"ColorPalette.sol\":475:486  Color.Black */\n      0x01\n        /* \"ColorPalette.sol\":460:486  colorChoice == Color.Black */\n      0x03\n      dup2\n      gt\n      iszero\n      tag_29\n      jumpi\n      mstore(0x00, 0x4e487b7100000000000000000000000000000000000000000000000000000000)\n      mstore(0x04, 0x21)\n      revert(0x00, 0x24)\n    tag_29:\n        /* \"ColorPalette.sol\":460:471  colorChoice */\n      0x00\n      dup1\n      sload\n      swap1\n      0x0100\n      exp\n      swap1\n      div\n      0xff\n      and\n        /* \"ColorPalette.sol\":460:486  colorChoice == Color.Black */\n      0x03\n      dup2\n      gt\n      iszero\n      tag_30\n      jumpi\n      mstore(0x00, 0x4e487b7100000000000000000000000000000000000000000000000000000000)\n      mstore(0x04, 0x21)\n      revert(0x00, 0x24)\n    tag_30:\n      eq\n        /* \"ColorPalette.sol\":456:726  if (colorChoice == Color.Black) {... */\n      iszero\n      tag_31\n      jumpi\n        /* \"ColorPalette.sol\":502:516  return \"Black\" */\n      mload(0x40)\n      dup1\n      0x40\n      add\n      0x40\n      mstore\n      dup1\n      0x05\n      dup2\n      mstore\n      0x20\n      add\n      0x426c61636b000000000000000000000000000000000000000000000000000000\n      dup2\n      mstore\n      pop\n      swap1\n      pop\n      jump(tag_24)\n        /* \"ColorPalette.sol\":456:726  if (colorChoice == Color.Black) {... */\n    tag_31:\n        /* \"ColorPalette.sol\":552:563  Color.White */\n      0x02\n        /* \"ColorPalette.sol\":537:563  colorChoice == Color.White */\n      0x03\n      dup2\n      gt\n      iszero\n      tag_33\n      jumpi\n      mstore(0x00, 0x4e487b7100000000000000000000000000000000000000000000000000000000)\n      mstore(0x04, 0x21)\n      revert(0x00, 0x24)\n    tag_33:\n        /* \"ColorPalette.sol\":537:548  colorChoice */\n      0x00\n      dup1\n      sload\n      swap1\n      0x0100\n      exp\n      swap1\n      div\n      0xff\n      and\n        /* \"ColorPalette.sol\":537:563  colorChoice == Color.White */\n      0x03\n      dup2\n      gt\n      iszero\n      tag_34\n      jumpi\n      mstore(0x00, 0x4e487b7100000000000000000000000000000000000000000000000000000000)\n      mstore(0x04, 0x21)\n      revert(0x00, 0x24)\n    tag_34:\n      eq\n        /* \"ColorPalette.sol\":533:726  if (colorChoice == Color.White) {... */\n      iszero\n      tag_35\n      jumpi\n        /* \"ColorPalette.sol\":579:593  return \"White\" */\n      mload(0x40)\n      dup1\n      0x40\n      add\n      0x40\n      mstore\n      dup1\n      0x05\n      dup2\n      mstore\n      0x20\n      add\n      0x5768697465000000000000000000000000000000000000000000000000000000\n      dup2\n      mstore\n      pop\n      swap1\n      pop\n      jump(tag_24)\n        /* \"ColorPalette.sol\":533:726  if (colorChoice == Color.White) {... */\n    tag_35:\n        /* \"ColorPalette.sol\":629:639  Color.Pink */\n      0x03\n        /* \"ColorPalette.sol\":614:639  colorChoice == Color.Pink */\n      dup1\n      dup2\n      gt\n      iszero\n      tag_37\n      jumpi\n      mstore(0x00, 0x4e487b7100000000000000000000000000000000000000000000000000000000)\n      mstore(0x04, 0x21)\n      revert(0x00, 0x24)\n    tag_37:\n        /* \"ColorPalette.sol\":614:625  colorChoice */\n      0x00\n      dup1\n      sload\n      swap1\n      0x0100\n      exp\n      swap1\n      div\n      0xff\n      and\n        /* \"ColorPalette.sol\":614:639  colorChoice == Color.Pink */\n      0x03\n      dup2\n      gt\n      iszero\n      tag_38\n      jumpi\n      mstore(0x00, 0x4e487b7100000000000000000000000000000000000000000000000000000000)\n      mstore(0x04, 0x21)\n      revert(0x00, 0x24)\n    tag_38:\n      eq\n        /* \"ColorPalette.sol\":610:726  if (colorChoice == Color.Pink) {... */\n      iszero\n      tag_39\n      jumpi\n        /* \"ColorPalette.sol\":655:668  return \"Pink\" */\n      mload(0x40)\n      dup1\n      0x40\n      add\n      0x40\n      mstore\n      dup1\n      0x04\n      dup2\n      mstore\n      0x20\n      add\n      0x50696e6b00000000000000000000000000000000000000000000000000000000\n      dup2\n      mstore\n      pop\n      swap1\n      pop\n      jump(tag_24)\n        /* \"ColorPalette.sol\":610:726  if (colorChoice == Color.Pink) {... */\n    tag_39:\n        /* \"ColorPalette.sol\":699:715  return \"Unknown\" */\n      mload(0x40)\n      dup1\n      0x40\n      add\n      0x40\n      mstore\n      dup1\n      0x07\n      dup2\n      mstore\n      0x20\n      add\n      0x556e6b6e6f776e00000000000000000000000000000000000000000000000000\n      dup2\n      mstore\n      pop\n      swap1\n      pop\n        /* \"ColorPalette.sol\":309:732  function getColorChoice() public view returns (string memory) {... */\n    tag_24:\n      swap1\n      jump\t// out\n        /* \"ColorPalette.sol\":738:849  function getAllChoices() public pure returns (string memory) {... */\n    tag_20:\n        /* \"ColorPalette.sol\":784:797  string memory */\n      0x60\n        /* \"ColorPalette.sol\":809:842  return \"Blue, Black, White, Pink\" */\n      mload(0x40)\n      dup1\n      0x40\n      add\n      0x40\n      mstore\n      dup1\n      0x18\n      dup2\n      mstore\n      0x20\n      add\n      0x426c75652c20426c61636b2c2057686974652c2050696e6b0000000000000000\n      dup2\n      mstore\n      pop\n      swap1\n      pop\n        /* \"ColorPalette.sol\":738:849  function getAllChoices() public pure returns (string memory) {... */\n      swap1\n      jump\t// out\n        /* \"#utility.yul\":7:160   */\n    tag_43:\n      0x00\n        /* \"#utility.yul\":98:104   */\n      dup2\n        /* \"#utility.yul\":85:105   */\n      calldataload\n        /* \"#utility.yul\":76:105   */\n      swap1\n      pop\n        /* \"#utility.yul\":114:154   */\n      tag_45\n        /* \"#utility.yul\":148:153   */\n      dup2\n        /* \"#utility.yul\":114:154   */\n      tag_46\n      jump\t// in\n    tag_45:\n        /* \"#utility.yul\":66:160   */\n      swap3\n      swap2\n      pop\n      pop\n      jump\t// out\n        /* \"#utility.yul\":166:442   */\n    tag_13:\n      0x00\n        /* \"#utility.yul\":281:283   */\n      0x20\n        /* \"#utility.yul\":269:278   */\n      dup3\n        /* \"#utility.yul\":260:267   */\n      dup5\n        /* \"#utility.yul\":256:279   */\n      sub\n        /* \"#utility.yul\":252:284   */\n      slt\n        /* \"#utility.yul\":249:251   */\n      iszero\n      tag_48\n      jumpi\n        /* \"#utility.yul\":297:298   */\n      0x00\n        /* \"#utility.yul\":294:295   */\n      dup1\n        /* \"#utility.yul\":287:299   */\n      revert\n        /* \"#utility.yul\":249:251   */\n    tag_48:\n        /* \"#utility.yul\":340:341   */\n      0x00\n        /* \"#utility.yul\":365:425   */\n      tag_49\n        /* \"#utility.yul\":417:424   */\n      dup5\n        /* \"#utility.yul\":408:414   */\n      dup3\n        /* \"#utility.yul\":397:406   */\n      dup6\n        /* \"#utility.yul\":393:415   */\n      add\n        /* \"#utility.yul\":365:425   */\n      tag_43\n      jump\t// in\n    tag_49:\n        /* \"#utility.yul\":355:425   */\n      swap2\n      pop\n        /* \"#utility.yul\":311:435   */\n      pop\n        /* \"#utility.yul\":239:442   */\n      swap3\n      swap2\n      pop\n      pop\n      jump\t// out\n        /* \"#utility.yul\":448:589   */\n    tag_50:\n        /* \"#utility.yul\":540:582   */\n      tag_52\n        /* \"#utility.yul\":576:581   */\n      dup2\n        /* \"#utility.yul\":540:582   */\n      tag_53\n      jump\t// in\n    tag_52:\n        /* \"#utility.yul\":535:538   */\n      dup3\n        /* \"#utility.yul\":528:583   */\n      mstore\n        /* \"#utility.yul\":518:589   */\n      pop\n      pop\n      jump\t// out\n        /* \"#utility.yul\":595:959   */\n    tag_54:\n      0x00\n        /* \"#utility.yul\":711:750   */\n      tag_56\n        /* \"#utility.yul\":744:749   */\n      dup3\n        /* \"#utility.yul\":711:750   */\n      tag_57\n      jump\t// in\n    tag_56:\n        /* \"#utility.yul\":766:837   */\n      tag_58\n        /* \"#utility.yul\":830:836   */\n      dup2\n        /* \"#utility.yul\":825:828   */\n      dup6\n        /* \"#utility.yul\":766:837   */\n      tag_59\n      jump\t// in\n    tag_58:\n        /* \"#utility.yul\":759:837   */\n      swap4\n      pop\n        /* \"#utility.yul\":846:898   */\n      tag_60\n        /* \"#utility.yul\":891:897   */\n      dup2\n        /* \"#utility.yul\":886:889   */\n      dup6\n        /* \"#utility.yul\":879:883   */\n      0x20\n        /* \"#utility.yul\":872:877   */\n      dup7\n        /* \"#utility.yul\":868:884   */\n      add\n        /* \"#utility.yul\":846:898   */\n      tag_61\n      jump\t// in\n    tag_60:\n        /* \"#utility.yul\":923:952   */\n      tag_62\n        /* \"#utility.yul\":945:951   */\n      dup2\n        /* \"#utility.yul\":923:952   */\n      tag_63\n      jump\t// in\n    tag_62:\n        /* \"#utility.yul\":918:921   */\n      dup5\n        /* \"#utility.yul\":914:953   */\n      add\n        /* \"#utility.yul\":907:953   */\n      swap2\n      pop\n        /* \"#utility.yul\":687:959   */\n      pop\n      swap3\n      swap2\n      pop\n      pop\n      jump\t// out\n        /* \"#utility.yul\":965:1197   */\n    tag_10:\n      0x00\n        /* \"#utility.yul\":1101:1103   */\n      0x20\n        /* \"#utility.yul\":1090:1099   */\n      dup3\n        /* \"#utility.yul\":1086:1104   */\n      add\n        /* \"#utility.yul\":1078:1104   */\n      swap1\n      pop\n        /* \"#utility.yul\":1114:1190   */\n      tag_65\n        /* \"#utility.yul\":1187:1188   */\n      0x00\n        /* \"#utility.yul\":1176:1185   */\n      dup4\n        /* \"#utility.yul\":1172:1189   */\n      add\n        /* \"#utility.yul\":1163:1169   */\n      dup5\n        /* \"#utility.yul\":1114:1190   */\n      tag_50\n      jump\t// in\n    tag_65:\n        /* \"#utility.yul\":1068:1197   */\n      swap3\n      swap2\n      pop\n      pop\n      jump\t// out\n        /* \"#utility.yul\":1203:1516   */\n    tag_18:\n      0x00\n        /* \"#utility.yul\":1354:1356   */\n      0x20\n        /* \"#utility.yul\":1343:1352   */\n      dup3\n        /* \"#utility.yul\":1339:1357   */\n      add\n        /* \"#utility.yul\":1331:1357   */\n      swap1\n      pop\n        /* \"#utility.yul\":1403:1412   */\n      dup2\n        /* \"#utility.yul\":1397:1401   */\n      dup2\n        /* \"#utility.yul\":1393:1413   */\n      sub\n        /* \"#utility.yul\":1389:1390   */\n      0x00\n        /* \"#utility.yul\":1378:1387   */\n      dup4\n        /* \"#utility.yul\":1374:1391   */\n      add\n        /* \"#utility.yul\":1367:1414   */\n      mstore\n        /* \"#utility.yul\":1431:1509   */\n      tag_67\n        /* \"#utility.yul\":1504:1508   */\n      dup2\n        /* \"#utility.yul\":1495:1501   */\n      dup5\n        /* \"#utility.yul\":1431:1509   */\n      tag_54\n      jump\t// in\n    tag_67:\n        /* \"#utility.yul\":1423:1509   */\n      swap1\n      pop\n        /* \"#utility.yul\":1321:1516   */\n      swap3\n      swap2\n      pop\n      pop\n      jump\t// out\n        /* \"#utility.yul\":1522:1621   */\n    tag_57:\n      0x00\n        /* \"#utility.yul\":1608:1613   */\n      dup2\n        /* \"#utility.yul\":1602:1614   */\n      mload\n        /* \"#utility.yul\":1592:1614   */\n      swap1\n      pop\n        /* \"#utility.yul\":1581:1621   */\n      swap2\n      swap1\n      pop\n      jump\t// out\n        /* \"#utility.yul\":1627:1796   */\n    tag_59:\n      0x00\n        /* \"#utility.yul\":1745:1751   */\n      dup3\n        /* \"#utility.yul\":1740:1743   */\n      dup3\n        /* \"#utility.yul\":1733:1752   */\n      mstore\n        /* \"#utility.yul\":1785:1789   */\n      0x20\n        /* \"#utility.yul\":1780:1783   */\n      dup3\n        /* \"#utility.yul\":1776:1790   */\n      add\n        /* \"#utility.yul\":1761:1790   */\n      swap1\n      pop\n        /* \"#utility.yul\":1723:1796   */\n      swap3\n      swap2\n      pop\n      pop\n      jump\t// out\n        /* \"#utility.yul\":1802:1927   */\n    tag_70:\n      0x00\n        /* \"#utility.yul\":1875:1880   */\n      dup2\n        /* \"#utility.yul\":1864:1880   */\n      swap1\n      pop\n        /* \"#utility.yul\":1881:1921   */\n      tag_72\n        /* \"#utility.yul\":1915:1920   */\n      dup3\n        /* \"#utility.yul\":1881:1921   */\n      tag_73\n      jump\t// in\n    tag_72:\n        /* \"#utility.yul\":1854:1927   */\n      swap2\n      swap1\n      pop\n      jump\t// out\n        /* \"#utility.yul\":1933:2058   */\n    tag_53:\n      0x00\n        /* \"#utility.yul\":2021:2052   */\n      tag_75\n        /* \"#utility.yul\":2046:2051   */\n      dup3\n        /* \"#utility.yul\":2021:2052   */\n      tag_70\n      jump\t// in\n    tag_75:\n        /* \"#utility.yul\":2008:2052   */\n      swap1\n      pop\n        /* \"#utility.yul\":1998:2058   */\n      swap2\n      swap1\n      pop\n      jump\t// out\n        /* \"#utility.yul\":2064:2371   */\n    tag_61:\n        /* \"#utility.yul\":2132:2133   */\n      0x00\n        /* \"#utility.yul\":2142:2255   */\n    tag_77:\n        /* \"#utility.yul\":2156:2162   */\n      dup4\n        /* \"#utility.yul\":2153:2154   */\n      dup2\n        /* \"#utility.yul\":2150:2163   */\n      lt\n        /* \"#utility.yul\":2142:2255   */\n      iszero\n      tag_79\n      jumpi\n        /* \"#utility.yul\":2241:2242   */\n      dup1\n        /* \"#utility.yul\":2236:2239   */\n      dup3\n        /* \"#utility.yul\":2232:2243   */\n      add\n        /* \"#utility.yul\":2226:2244   */\n      mload\n        /* \"#utility.yul\":2222:2223   */\n      dup2\n        /* \"#utility.yul\":2217:2220   */\n      dup5\n        /* \"#utility.yul\":2213:2224   */\n      add\n        /* \"#utility.yul\":2206:2245   */\n      mstore\n        /* \"#utility.yul\":2178:2180   */\n      0x20\n        /* \"#utility.yul\":2175:2176   */\n      dup2\n        /* \"#utility.yul\":2171:2181   */\n      add\n        /* \"#utility.yul\":2166:2181   */\n      swap1\n      pop\n        /* \"#utility.yul\":2142:2255   */\n      jump(tag_77)\n    tag_79:\n        /* \"#utility.yul\":2273:2279   */\n      dup4\n        /* \"#utility.yul\":2270:2271   */\n      dup2\n        /* \"#utility.yul\":2267:2280   */\n      gt\n        /* \"#utility.yul\":2264:2266   */\n      iszero\n      tag_80\n      jumpi\n        /* \"#utility.yul\":2353:2354   */\n      0x00\n        /* \"#utility.yul\":2344:2350   */\n      dup5\n        /* \"#utility.yul\":2339:2342   */\n      dup5\n        /* \"#utility.yul\":2335:2351   */\n      add\n        /* \"#utility.yul\":2328:2355   */\n      mstore\n        /* \"#utility.yul\":2264:2266   */\n    tag_80:\n        /* \"#utility.yul\":2113:2371   */\n      pop\n      pop\n      pop\n      pop\n      jump\t// out\n        /* \"#utility.yul\":2377:2557   */\n    tag_81:\n        /* \"#utility.yul\":2425:2502   */\n      0x4e487b7100000000000000000000000000000000000000000000000000000000\n        /* \"#utility.yul\":2422:2423   */\n      0x00\n        /* \"#utility.yul\":2415:2503   */\n      mstore\n        /* \"#utility.yul\":2522:2526   */\n      0x21\n        /* \"#utility.yul\":2519:2520   */\n      0x04\n        /* \"#utility.yul\":2512:2527   */\n      mstore\n        /* \"#utility.yul\":2546:2550   */\n      0x24\n        /* \"#utility.yul\":2543:2544   */\n      0x00\n        /* \"#utility.yul\":2536:2551   */\n      revert\n        /* \"#utility.yul\":2563:2665   */\n    tag_63:\n      0x00\n        /* \"#utility.yul\":2655:2657   */\n      0x1f\n        /* \"#utility.yul\":2651:2658   */\n      not\n        /* \"#utility.yul\":2646:2648   */\n      0x1f\n        /* \"#utility.yul\":2639:2644   */\n      dup4\n        /* \"#utility.yul\":2635:2649   */\n      add\n        /* \"#utility.yul\":2631:2659   */\n      and\n        /* \"#utility.yul\":2621:2659   */\n      swap1\n      pop\n        /* \"#utility.yul\":2611:2665   */\n      swap2\n      swap1\n      pop\n      jump\t// out\n        /* \"#utility.yul\":2671:2783   */\n    tag_73:\n        /* \"#utility.yul\":2751:2752   */\n      0x04\n        /* \"#utility.yul\":2744:2749   */\n      dup2\n        /* \"#utility.yul\":2741:2753   */\n      lt\n        /* \"#utility.yul\":2731:2733   */\n      tag_85\n      jumpi\n        /* \"#utility.yul\":2757:2775   */\n      tag_86\n      tag_81\n      jump\t// in\n    tag_86:\n        /* \"#utility.yul\":2731:2733   */\n    tag_85:\n        /* \"#utility.yul\":2721:2783   */\n      pop\n      jump\t// out\n        /* \"#utility.yul\":2789:2895   */\n    tag_46:\n        /* \"#utility.yul\":2869:2870   */\n      0x04\n        /* \"#utility.yul\":2862:2867   */\n      dup2\n        /* \"#utility.yul\":2859:2871   */\n      lt\n        /* \"#utility.yul\":2849:2851   */\n      tag_88\n      jumpi\n        /* \"#utility.yul\":2885:2886   */\n      0x00\n        /* \"#utility.yul\":2882:2883   */\n      dup1\n        /* \"#utility.yul\":2875:2887   */\n      revert\n        /* \"#utility.yul\":2849:2851   */\n    tag_88:\n        /* \"#utility.yul\":2839:2895   */\n      pop\n      jump\t// out\n\n    auxdata: 0xa2646970667358221220c328b20f79b0c67017360cd5c0b2087956a96c46231cb44b13fd9da740da051264736f6c63430008000033\n}\n",
				"bytecode": {
					"linkReferences": {},
					"object": "608060405234801561001057600080fd5b5060026000806101000a81548160ff0219169083600381111561005c577f4e487b7100000000000000000000000000000000000000000000000000000000600052602160045260246000fd5b0217905550610681806100706000396000f3fe608060405234801561001057600080fd5b506004361061004c5760003560e01c80634f10e0381461005157806373eb6b701461006f5780637e23857d1461008b578063e97995dc146100a9575b600080fd5b6100596100c7565b6040516100669190610536565b60405180910390f35b610089600480360381019061008491906104c5565b6100d8565b005b61009361012a565b6040516100a09190610551565b60405180910390f35b6100b1610473565b6040516100be9190610551565b60405180910390f35b60008054906101000a900460ff1681565b806000806101000a81548160ff02191690836003811115610122577f4e487b7100000000000000000000000000000000000000000000000000000000600052602160045260246000fd5b021790555050565b606060006003811115610166577f4e487b7100000000000000000000000000000000000000000000000000000000600052602160045260246000fd5b60008054906101000a900460ff1660038111156101ac577f4e487b7100000000000000000000000000000000000000000000000000000000600052602160045260246000fd5b14156101ef576040518060400160405280600481526020017f426c7565000000000000000000000000000000000000000000000000000000008152509050610470565b60016003811115610229577f4e487b7100000000000000000000000000000000000000000000000000000000600052602160045260246000fd5b60008054906101000a900460ff16600381111561026f577f4e487b7100000000000000000000000000000000000000000000000000000000600052602160045260246000fd5b14156102b2576040518060400160405280600581526020017f426c61636b0000000000000000000000000000000000000000000000000000008152509050610470565b600260038111156102ec577f4e487b7100000000000000000000000000000000000000000000000000000000600052602160045260246000fd5b60008054906101000a900460ff166003811115610332577f4e487b7100000000000000000000000000000000000000000000000000000000600052602160045260246000fd5b1415610375576040518060400160405280600581526020017f57686974650000000000000000000000000000000000000000000000000000008152509050610470565b6003808111156103ae577f4e487b7100000000000000000000000000000000000000000000000000000000600052602160045260246000fd5b60008054906101000a900460ff1660038111156103f4577f4e487b7100000000000000000000000000000000000000000000000000000000600052602160045260246000fd5b1415610437576040518060400160405280600481526020017f50696e6b000000000000000000000000000000000000000000000000000000008152509050610470565b6040518060400160405280600781526020017f556e6b6e6f776e0000000000000000000000000000000000000000000000000081525090505b90565b60606040518060400160405280601881526020017f426c75652c20426c61636b2c2057686974652c2050696e6b0000000000000000815250905090565b6000813590506104bf8161063b565b92915050565b6000602082840312156104d757600080fd5b60006104e5848285016104b0565b91505092915050565b6104f7816105a2565b82525050565b600061050882610573565b610512818561057e565b93506105228185602086016105b4565b61052b81610616565b840191505092915050565b600060208201905061054b60008301846104ee565b92915050565b6000602082019050818103600083015261056b81846104fd565b905092915050565b600081519050919050565b600082825260208201905092915050565b600081905061059d82610627565b919050565b60006105ad8261058f565b9050919050565b60005b838110156105d25780820151818401526020810190506105b7565b838111156105e1576000848401525b50505050565b7f4e487b7100000000000000000000000000000000000000000000000000000000600052602160045260246000fd5b6000601f19601f8301169050919050565b60048110610638576106376105e7565b5b50565b6004811061064857600080fd5b5056fea2646970667358221220c328b20f79b0c67017360cd5c0b2087956a96c46231cb44b13fd9da740da051264736f6c63430008000033",
					"opcodes": "PUSH1 0x80 PUSH1 0x40 MSTORE CALLVALUE DUP1 ISZERO PUSH2 0x10 JUMPI PUSH1 0x0 DUP1 REVERT JUMPDEST POP PUSH1 0x2 PUSH1 0x0 DUP1 PUSH2 0x100 EXP DUP2 SLOAD DUP2 PUSH1 0xFF MUL NOT AND SWAP1 DUP4 PUSH1 0x3 DUP2 GT ISZERO PUSH2 0x5C JUMPI PUSH32 0x4E487B7100000000000000000000000000000000000000000000000000000000 PUSH1 0x0 MSTORE PUSH1 0x21 PUSH1 0x4 MSTORE PUSH1 0x24 PUSH1 0x0 REVERT JUMPDEST MUL OR SWAP1 SSTORE POP PUSH2 0x681 DUP1 PUSH2 0x70 PUSH1 0x0 CODECOPY PUSH1 0x0 RETURN INVALID PUSH1 0x80 PUSH1 0x40 MSTORE CALLVALUE DUP1 ISZERO PUSH2 0x10 JUMPI PUSH1 0x0 DUP1 REVERT JUMPDEST POP PUSH1 0x4 CALLDATASIZE LT PUSH2 0x4C JUMPI PUSH1 0x0 CALLDATALOAD PUSH1 0xE0 SHR DUP1 PUSH4 0x4F10E038 EQ PUSH2 0x51 JUMPI DUP1 PUSH4 0x73EB6B70 EQ PUSH2 0x6F JUMPI DUP1 PUSH4 0x7E23857D EQ PUSH2 0x8B JUMPI DUP1 PUSH4 0xE97995DC EQ PUSH2 0xA9 JUMPI JUMPDEST PUSH1 0x0 DUP1 REVERT JUMPDEST PUSH2 0x59 PUSH2 0xC7 JUMP JUMPDEST PUSH1 0x40 MLOAD PUSH2 0x66 SWAP2 SWAP1 PUSH2 0x536 JUMP JUMPDEST PUSH1 0x40 MLOAD DUP1 SWAP2 SUB SWAP1 RETURN JUMPDEST PUSH2 0x89 PUSH1 0x4 DUP1 CALLDATASIZE SUB DUP2 ADD SWAP1 PUSH2 0x84 SWAP2 SWAP1 PUSH2 0x4C5 JUMP JUMPDEST PUSH2 0xD8 JUMP JUMPDEST STOP JUMPDEST PUSH2 0x93 PUSH2 0x12A JUMP JUMPDEST PUSH1 0x40 MLOAD PUSH2 0xA0 SWAP2 SWAP1 PUSH2 0x551 JUMP JUMPDEST PUSH1 0x40 MLOAD DUP1 SWAP2 SUB SWAP1 RETURN JUMPDEST PUSH2 0xB1 PUSH2 0x473 JUMP JUMPDEST PUSH1 0x40 MLOAD PUSH2 0xBE SWAP2 SWAP1 PUSH2 0x551 JUMP JUMPDEST PUSH1 0x40 MLOAD DUP1 SWAP2 SUB SWAP1 RETURN JUMPDEST PUSH1 0x0 DUP1 SLOAD SWAP1 PUSH2 0x100 EXP SWAP1 DIV PUSH1 0xFF AND DUP2 JUMP JUMPDEST DUP1 PUSH1 0x0 DUP1 PUSH2 0x100 EXP DUP2 SLOAD DUP2 PUSH1 0xFF MUL NOT AND SWAP1 DUP4 PUSH1 0x3 DUP2 GT ISZERO PUSH2 0x122 JUMPI PUSH32 0x4E487B7100000000000000000000000000000000000000000000000000000000 PUSH1 0x0 MSTORE PUSH1 0x21 PUSH1 0x4 MSTORE PUSH1 0x24 PUSH1 0x0 REVERT JUMPDEST MUL OR SWAP1 SSTORE POP POP JUMP JUMPDEST PUSH1 0x60 PUSH1 0x0 PUSH1 0x3 DUP2 GT ISZERO PUSH2 0x166 JUMPI PUSH32 0x4E487B7100000000000000000000000000000000000000000000000000000000 PUSH1 0x0 MSTORE PUSH1 0x21 PUSH1 0x4 MSTORE PUSH1 0x24 PUSH1 0x0 REVERT JUMPDEST PUSH1 0x0 DUP1 SLOAD SWAP1 PUSH2 0x100 EXP SWAP1 DIV PUSH1 0xFF AND PUSH1 0x3 DUP2 GT ISZERO PUSH2 0x1AC JUMPI PUSH32 0x4E487B7100000000000000000000000000000000000000000000000000000000 PUSH1 0x0 MSTORE PUSH1 0x21 PUSH1 0x4 MSTORE PUSH1 0x24 PUSH1 0x0 REVERT JUMPDEST EQ ISZERO PUSH2 0x1EF JUMPI PUSH1 0x40 MLOAD DUP1 PUSH1 0x40 ADD PUSH1 0x40 MSTORE DUP1 PUSH1 0x4 DUP2 MSTORE PUSH1 0x20 ADD PUSH32 0x426C756500000000000000000000000000000000000000000000000000000000 DUP2 MSTORE POP SWAP1 POP PUSH2 0x470 JUMP JUMPDEST PUSH1 0x1 PUSH1 0x3 DUP2 GT ISZERO PUSH2 0x229 JUMPI PUSH32 0x4E487B7100000000000000000000000000000000000000000000000000000000 PUSH1 0x0 MSTORE PUSH1 0x21 PUSH1 0x4 MSTORE PUSH1 0x24 PUSH1 0x0 REVERT JUMPDEST PUSH1 0x0 DUP1 SLOAD SWAP1 PUSH2 0x100 EXP SWAP1 DIV PUSH1 0xFF AND PUSH1 0x3 DUP2 GT ISZERO PUSH2 0x26F JUMPI PUSH32 0x4E487B7100000000000000000000000000000000000000000000000000000000 PUSH1 0x0 MSTORE PUSH1 0x21 PUSH1 0x4 MSTORE PUSH1 0x24 PUSH1 0x0 REVERT JUMPDEST EQ ISZERO PUSH2 0x2B2 JUMPI PUSH1 0x40 MLOAD DUP1 PUSH1 0x40 ADD PUSH1 0x40 MSTORE DUP1 PUSH1 0x5 DUP2 MSTORE PUSH1 0x20 ADD PUSH32 0x426C61636B000000000000000000000000000000000000000000000000000000 DUP2 MSTORE POP SWAP1 POP PUSH2 0x470 JUMP JUMPDEST PUSH1 0x2 PUSH1 0x3 DUP2 GT ISZERO PUSH2 0x2EC JUMPI PUSH32 0x4E487B7100000000000000000000000000000000000000000000000000000000 PUSH1 0x0 MSTORE PUSH1 0x21 PUSH1 0x4 MSTORE PUSH1 0x24 PUSH1 0x0 REVERT JUMPDEST PUSH1 0x0 DUP1 SLOAD SWAP1 PUSH2 0x100 EXP SWAP1 DIV PUSH1 0xFF AND PUSH1 0x3 DUP2 GT ISZERO PUSH2 0x332 JUMPI PUSH32 0x4E487B7100000000000000000000000000000000000000000000000000000000 PUSH1 0x0 MSTORE PUSH1 0x21 PUSH1 0x4 MSTORE PUSH1 0x24 PUSH1 0x0 REVERT JUMPDEST EQ ISZERO PUSH2 0x375 JUMPI PUSH1 0x40 MLOAD DUP1 PUSH1 0x40 ADD PUSH1 0x40 MSTORE DUP1 PUSH1 0x5 DUP2 MSTORE PUSH1 0x20 ADD PUSH32 0x5768697465000000000000000000000000000000000000000000000000000000 DUP2 MSTORE POP SWAP1 POP PUSH2 0x470 JUMP JUMPDEST PUSH1 0x3 DUP1 DUP2 GT ISZERO PUSH2 0x3AE JUMPI PUSH32 0x4E487B7100000000000000000000000000000000000000000000000000000000 PUSH1 0x0 MSTORE PUSH1 0x21 PUSH1 0x4 MSTORE PUSH1 0x24 PUSH1 0x0 REVERT JUMPDEST PUSH1 0x0 DUP1 SLOAD SWAP1 PUSH2 0x100 EXP SWAP1 DIV PUSH1 0xFF AND PUSH1 0x3 DUP2 GT ISZERO PUSH2 0x3F4 JUMPI PUSH32 0x4E487B7100000000000000000000000000000000000000000000000000000000 PUSH1 0x0 MSTORE PUSH1 0x21 PUSH1 0x4 MSTORE PUSH1 0x24 PUSH1 0x0 REVERT JUMPDEST EQ ISZERO PUSH2 0x437 JUMPI PUSH1 0x40 MLOAD DUP1 PUSH1 0x40 ADD PUSH1 0x40 MSTORE DUP1 PUSH1 0x4 DUP2 MSTORE PUSH1 0x20 ADD PUSH32 0x50696E6B00000000000000000000000000000000000000000000000000000000 DUP2 MSTORE POP SWAP1 POP PUSH2 0x470 JUMP JUMPDEST PUSH1 0x40 MLOAD DUP1 PUSH1 0x40 ADD PUSH1 0x40 MSTORE DUP1 PUSH1 0x7 DUP2 MSTORE PUSH1 0x20 ADD PUSH32 0x556E6B6E6F776E00000000000000000000000000000000000000000000000000 DUP2 MSTORE POP SWAP1 POP JUMPDEST SWAP1 JUMP JUMPDEST PUSH1 0x60 PUSH1 0x40 MLOAD DUP1 PUSH1 0x40 ADD PUSH1 0x40 MSTORE DUP1 PUSH1 0x18 DUP2 MSTORE PUSH1 0x20 ADD PUSH32 0x426C75652C20426C61636B2C2057686974652C2050696E6B0000000000000000 DUP2 MSTORE POP SWAP1 POP SWAP1 JUMP JUMPDEST PUSH1 0x0 DUP2 CALLDATALOAD SWAP1 POP PUSH2 0x4BF DUP2 PUSH2 0x63B JUMP JUMPDEST SWAP3 SWAP2 POP POP JUMP JUMPDEST PUSH1 0x0 PUSH1 0x20 DUP3 DUP5 SUB SLT ISZERO PUSH2 0x4D7 JUMPI PUSH1 0x0 DUP1 REVERT JUMPDEST PUSH1 0x0 PUSH2 0x4E5 DUP5 DUP3 DUP6 ADD PUSH2 0x4B0 JUMP JUMPDEST SWAP2 POP POP SWAP3 SWAP2 POP POP JUMP JUMPDEST PUSH2 0x4F7 DUP2 PUSH2 0x5A2 JUMP JUMPDEST DUP3 MSTORE POP POP JUMP JUMPDEST PUSH1 0x0 PUSH2 0x508 DUP3 PUSH2 0x573 JUMP JUMPDEST PUSH2 0x512 DUP2 DUP6 PUSH2 0x57E JUMP JUMPDEST SWAP4 POP PUSH2 0x522 DUP2 DUP6 PUSH1 0x20 DUP7 ADD PUSH2 0x5B4 JUMP JUMPDEST PUSH2 0x52B DUP2 PUSH2 0x616 JUMP JUMPDEST DUP5 ADD SWAP2 POP POP SWAP3 SWAP2 POP POP JUMP JUMPDEST PUSH1 0x0 PUSH1 0x20 DUP3 ADD SWAP1 POP PUSH2 0x54B PUSH1 0x0 DUP4 ADD DUP5 PUSH2 0x4EE JUMP JUMPDEST SWAP3 SWAP2 POP POP JUMP JUMPDEST PUSH1 0x0 PUSH1 0x20 DUP3 ADD SWAP1 POP DUP2 DUP2 SUB PUSH1 0x0 DUP4 ADD MSTORE PUSH2 0x56B DUP2 DUP5 PUSH2 0x4FD JUMP JUMPDEST SWAP1 POP SWAP3 SWAP2 POP POP JUMP JUMPDEST PUSH1 0x0 DUP2 MLOAD SWAP1 POP SWAP2 SWAP1 POP JUMP JUMPDEST PUSH1 0x0 DUP3 DUP3 MSTORE PUSH1 0x20 DUP3 ADD SWAP1 POP SWAP3 SWAP2 POP POP JUMP JUMPDEST PUSH1 0x0 DUP2 SWAP1 POP PUSH2 0x59D DUP3 PUSH2 0x627 JUMP JUMPDEST SWAP2 SWAP1 POP JUMP JUMPDEST PUSH1 0x0 PUSH2 0x5AD DUP3 PUSH2 0x58F JUMP JUMPDEST SWAP1 POP SWAP2 SWAP1 POP JUMP JUMPDEST PUSH1 0x0 JUMPDEST DUP4 DUP2 LT ISZERO PUSH2 0x5D2 JUMPI DUP1 DUP3 ADD MLOAD DUP2 DUP5 ADD MSTORE PUSH1 0x20 DUP2 ADD SWAP1 POP PUSH2 0x5B7 JUMP JUMPDEST DUP4 DUP2 GT ISZERO PUSH2 0x5E1 JUMPI PUSH1 0x0 DUP5 DUP5 ADD MSTORE JUMPDEST POP POP POP POP JUMP JUMPDEST PUSH32 0x4E487B7100000000000000000000000000000000000000000000000000000000 PUSH1 0x0 MSTORE PUSH1 0x21 PUSH1 0x4 MSTORE PUSH1 0x24 PUSH1 0x0 REVERT JUMPDEST PUSH1 0x0 PUSH1 0x1F NOT PUSH1 0x1F DUP4 ADD AND SWAP1 POP SWAP2 SWAP1 POP JUMP JUMPDEST PUSH1 0x4 DUP2 LT PUSH2 0x638 JUMPI PUSH2 0x637 PUSH2 0x5E7 JUMP JUMPDEST JUMPDEST POP JUMP JUMPDEST PUSH1 0x4 DUP2 LT PUSH2 0x648 JUMPI PUSH1 0x0 DUP1 REVERT JUMPDEST POP JUMP INVALID LOG2 PUSH5 0x6970667358 0x22 SLT KECCAK256 0xC3 0x28 0xB2 0xF PUSH26 0xB0C67017360CD5C0B2087956A96C46231CB44B13FD9DA740DA05 SLT PUSH5 0x736F6C6343 STOP ADDMOD STOP STOP CALLER "
				},
				"gasEstimates": {
					"creation": {
						"codeDepositCost": "333000",
						"executionCost": "21261",
						"totalCost": "354261"
					},
					"external": {
						"colorChoice()": "1235",
						"getAllChoices()": "infinite",
						"getColorChoice()": "infinite",
						"selectColor(uint8)": "21250"
					}
				},
				"methodIdentifiers": {
					"colorChoice()": "4f10e038",
					"getAllChoices()": "e97995dc",
					"getColorChoice()": "7e23857d",
					"selectColor(uint8)": "73eb6b70"
				}
			},
			"storageLayout": {
				"storage": [
					{
						"astId": 9,
						"contract": "ColorPalette.sol:ColorPalette",
						"label": "colorChoice",
						"offset": 0,
						"slot": "0",
						"type": "t_enum(Color)6"
					}
				],
				"types": {
					"t_enum(Color)6": {
						"encoding": "inplace",
						"label": "enum ColorPalette.Color",
						"numberOfBytes": "1"
					}
				}
			},
			"userdoc": {
				"kind": "user",
				"methods": {},
				"version": 1
			}
		}
	}
}