{
	"Calculator.sol": {
		"Calculator": {
			"abi": [
				{
					"inputs": [
						{
							"internalType": "uint256",
							"name": "_A",
							"type": "uint256"
						},
						{
							"internalType": "uint256",
							"name": "_B",
							"type": "uint256"
						}
					],
					"stateMutability": "nonpayable",
					"type": "constructor"
				},
				{
					"inputs": [],
					"name": "A",
					"outputs": [
						{
							"internalType": "uint256",
							"name": "",
							"type": "uint256"
						}
					],
					"stateMutability": "view",
					"type": "function"
				},
				{
					"inputs": [],
					"name": "B",
					"outputs": [
						{
							"internalType": "uint256",
							"name": "",
							"type": "uint256"
						}
					],
					"stateMutability": "view",
					"type": "function"
				},
				{
					"inputs": [],
					"name": "checkModulo",
					"outputs": [
						{
							"internalType": "uint256",
							"name": "",
							"type": "uint256"
						}
					],
					"stateMutability": "view",
					"type": "function"
				},
				{
					"inputs": [],
					"name": "divideInput",
					"outputs": [
						{
							"internalType": "uint256",
							"name": "",
							"type": "uint256"
						}
					],
					"stateMutability": "view",
					"type": "function"
				},
				{
					"inputs": [],
					"name": "isEvenOrOdd",
					"outputs": [
						{
							"internalType": "string",
							"name": "",
							"type": "string"
						}
					],
					"stateMutability": "view",
					"type": "function"
				}
			],
			"devdoc": {
				"kind": "dev",
				"methods": {},
				"version": 1
			},
			"evm": {
				"assembly": "    /* \"Calculator.sol\":207:895  contract Calculator is GetNumbers {... */\n  mstore(0x40, 0x80)\n    /* \"Calculator.sol\":248:305  constructor(uint256 _A, uint256 _B) GetNumbers(_A, _B) {} */\n  callvalue\n  dup1\n  iszero\n  tag_1\n  jumpi\n  0x00\n  dup1\n  revert\ntag_1:\n  pop\n  mload(0x40)\n  sub(codesize, bytecodeSize)\n  dup1\n  bytecodeSize\n  dup4\n  codecopy\n  dup2\n  dup2\n  add\n  0x40\n  mstore\n  dup2\n  add\n  swap1\n  tag_2\n  swap2\n  swap1\n  tag_3\n  jump\t// in\ntag_2:\n    /* \"Calculator.sol\":295:297  _A */\n  dup2\n    /* \"Calculator.sol\":299:301  _B */\n  dup2\n    /* \"Calculator.sol\":178:180  _A */\n  dup2\n    /* \"Calculator.sol\":174:175  A */\n  0x00\n    /* \"Calculator.sol\":174:180  A = _A */\n  dup2\n  swap1\n  sstore\n  pop\n    /* \"Calculator.sol\":194:196  _B */\n  dup1\n    /* \"Calculator.sol\":190:191  B */\n  0x01\n    /* \"Calculator.sol\":190:196  B = _B */\n  dup2\n  swap1\n  sstore\n  pop\n    /* \"Calculator.sol\":128:203  constructor(uint256 _A, uint256 _B) {... */\n  pop\n  pop\n    /* \"Calculator.sol\":248:305  constructor(uint256 _A, uint256 _B) GetNumbers(_A, _B) {} */\n  pop\n  pop\n    /* \"Calculator.sol\":207:895  contract Calculator is GetNumbers {... */\n  jump(tag_8)\n    /* \"#utility.yul\":7:150   */\ntag_10:\n  0x00\n    /* \"#utility.yul\":95:101   */\n  dup2\n    /* \"#utility.yul\":89:102   */\n  mload\n    /* \"#utility.yul\":80:102   */\n  swap1\n  pop\n    /* \"#utility.yul\":111:144   */\n  tag_12\n    /* \"#utility.yul\":138:143   */\n  dup2\n    /* \"#utility.yul\":111:144   */\n  tag_13\n  jump\t// in\ntag_12:\n    /* \"#utility.yul\":70:150   */\n  swap3\n  swap2\n  pop\n  pop\n  jump\t// out\n    /* \"#utility.yul\":156:596   */\ntag_3:\n  0x00\n  dup1\n    /* \"#utility.yul\":292:294   */\n  0x40\n    /* \"#utility.yul\":280:289   */\n  dup4\n    /* \"#utility.yul\":271:278   */\n  dup6\n    /* \"#utility.yul\":267:290   */\n  sub\n    /* \"#utility.yul\":263:295   */\n  slt\n    /* \"#utility.yul\":260:262   */\n  iszero\n  tag_15\n  jumpi\n    /* \"#utility.yul\":308:309   */\n  0x00\n    /* \"#utility.yul\":305:306   */\n  dup1\n    /* \"#utility.yul\":298:310   */\n  revert\n    /* \"#utility.yul\":260:262   */\ntag_15:\n    /* \"#utility.yul\":351:352   */\n  0x00\n    /* \"#utility.yul\":376:440   */\n  tag_16\n    /* \"#utility.yul\":432:439   */\n  dup6\n    /* \"#utility.yul\":423:429   */\n  dup3\n    /* \"#utility.yul\":412:421   */\n  dup7\n    /* \"#utility.yul\":408:430   */\n  add\n    /* \"#utility.yul\":376:440   */\n  tag_10\n  jump\t// in\ntag_16:\n    /* \"#utility.yul\":366:440   */\n  swap3\n  pop\n    /* \"#utility.yul\":322:450   */\n  pop\n    /* \"#utility.yul\":489:491   */\n  0x20\n    /* \"#utility.yul\":515:579   */\n  tag_17\n    /* \"#utility.yul\":571:578   */\n  dup6\n    /* \"#utility.yul\":562:568   */\n  dup3\n    /* \"#utility.yul\":551:560   */\n  dup7\n    /* \"#utility.yul\":547:569   */\n  add\n    /* \"#utility.yul\":515:579   */\n  tag_10\n  jump\t// in\ntag_17:\n    /* \"#utility.yul\":505:579   */\n  swap2\n  pop\n    /* \"#utility.yul\":460:589   */\n  pop\n    /* \"#utility.yul\":250:596   */\n  swap3\n  pop\n  swap3\n  swap1\n  pop\n  jump\t// out\n    /* \"#utility.yul\":602:679   */\ntag_18:\n  0x00\n    /* \"#utility.yul\":668:673   */\n  dup2\n    /* \"#utility.yul\":657:673   */\n  swap1\n  pop\n    /* \"#utility.yul\":647:679   */\n  swap2\n  swap1\n  pop\n  jump\t// out\n    /* \"#utility.yul\":685:807   */\ntag_13:\n    /* \"#utility.yul\":758:782   */\n  tag_21\n    /* \"#utility.yul\":776:781   */\n  dup2\n    /* \"#utility.yul\":758:782   */\n  tag_18\n  jump\t// in\ntag_21:\n    /* \"#utility.yul\":751:756   */\n  dup2\n    /* \"#utility.yul\":748:783   */\n  eq\n    /* \"#utility.yul\":738:740   */\n  tag_22\n  jumpi\n    /* \"#utility.yul\":797:798   */\n  0x00\n    /* \"#utility.yul\":794:795   */\n  dup1\n    /* \"#utility.yul\":787:799   */\n  revert\n    /* \"#utility.yul\":738:740   */\ntag_22:\n    /* \"#utility.yul\":728:807   */\n  pop\n  jump\t// out\n    /* \"Calculator.sol\":207:895  contract Calculator is GetNumbers {... */\ntag_8:\n  dataSize(sub_0)\n  dup1\n  dataOffset(sub_0)\n  0x00\n  codecopy\n  0x00\n  return\nstop\n\nsub_0: assembly {\n        /* \"Calculator.sol\":207:895  contract Calculator is GetNumbers {... */\n      mstore(0x40, 0x80)\n      callvalue\n      dup1\n      iszero\n      tag_1\n      jumpi\n      0x00\n      dup1\n      revert\n    tag_1:\n      pop\n      jumpi(tag_2, lt(calldatasize, 0x04))\n      shr(0xe0, calldataload(0x00))\n      dup1\n      0x03e8ab5d\n      eq\n      tag_3\n      jumpi\n      dup1\n      0x22348426\n      eq\n      tag_4\n      jumpi\n      dup1\n      0x32e7c5bf\n      eq\n      tag_5\n      jumpi\n      dup1\n      0x772e3277\n      eq\n      tag_6\n      jumpi\n      dup1\n      0xf446c1d0\n      eq\n      tag_7\n      jumpi\n    tag_2:\n      0x00\n      dup1\n      revert\n        /* \"Calculator.sol\":311:444  function checkModulo() public view returns (uint256) {... */\n    tag_3:\n      tag_8\n      tag_9\n      jump\t// in\n    tag_8:\n      mload(0x40)\n      tag_10\n      swap2\n      swap1\n      tag_11\n      jump\t// in\n    tag_10:\n      mload(0x40)\n      dup1\n      swap2\n      sub\n      swap1\n      return\n        /* \"Calculator.sol\":450:715  function divideInput() public view returns (uint256) {... */\n    tag_4:\n      tag_12\n      tag_13\n      jump\t// in\n    tag_12:\n      mload(0x40)\n      tag_14\n      swap2\n      swap1\n      tag_11\n      jump\t// in\n    tag_14:\n      mload(0x40)\n      dup1\n      swap2\n      sub\n      swap1\n      return\n        /* \"Calculator.sol\":105:121  uint256 public B */\n    tag_5:\n      tag_15\n      tag_16\n      jump\t// in\n    tag_15:\n      mload(0x40)\n      tag_17\n      swap2\n      swap1\n      tag_11\n      jump\t// in\n    tag_17:\n      mload(0x40)\n      dup1\n      swap2\n      sub\n      swap1\n      return\n        /* \"Calculator.sol\":721:893  function isEvenOrOdd() public view returns (string memory) {... */\n    tag_6:\n      tag_18\n      tag_19\n      jump\t// in\n    tag_18:\n      mload(0x40)\n      tag_20\n      swap2\n      swap1\n      tag_21\n      jump\t// in\n    tag_20:\n      mload(0x40)\n      dup1\n      swap2\n      sub\n      swap1\n      return\n        /* \"Calculator.sol\":83:99  uint256 public A */\n    tag_7:\n      tag_22\n      tag_23\n      jump\t// in\n    tag_22:\n      mload(0x40)\n      tag_24\n      swap2\n      swap1\n      tag_11\n      jump\t// in\n    tag_24:\n      mload(0x40)\n      dup1\n      swap2\n      sub\n      swap1\n      return\n        /* \"Calculator.sol\":311:444  function checkModulo() public view returns (uint256) {... */\n    tag_9:\n        /* \"Calculator.sol\":355:362  uint256 */\n      0x00\n        /* \"Calculator.sol\":387:388  0 */\n      dup1\n        /* \"Calculator.sol\":382:383  B */\n      sload(0x01)\n        /* \"Calculator.sol\":382:388  B != 0 */\n      eq\n      iszero\n        /* \"Calculator.sol\":374:415  require(B != 0, \"Divisor cannot be zero\") */\n      tag_26\n      jumpi\n      mload(0x40)\n      0x08c379a000000000000000000000000000000000000000000000000000000000\n      dup2\n      mstore\n      0x04\n      add\n      tag_27\n      swap1\n      tag_28\n      jump\t// in\n    tag_27:\n      mload(0x40)\n      dup1\n      swap2\n      sub\n      swap1\n      revert\n    tag_26:\n        /* \"Calculator.sol\":436:437  B */\n      sload(0x01)\n        /* \"Calculator.sol\":432:433  A */\n      sload(0x00)\n        /* \"Calculator.sol\":432:437  A % B */\n      tag_29\n      swap2\n      swap1\n      tag_30\n      jump\t// in\n    tag_29:\n        /* \"Calculator.sol\":425:437  return A % B */\n      swap1\n      pop\n        /* \"Calculator.sol\":311:444  function checkModulo() public view returns (uint256) {... */\n      swap1\n      jump\t// out\n        /* \"Calculator.sol\":450:715  function divideInput() public view returns (uint256) {... */\n    tag_13:\n        /* \"Calculator.sol\":494:501  uint256 */\n      0x00\n        /* \"Calculator.sol\":526:527  0 */\n      dup1\n        /* \"Calculator.sol\":521:522  B */\n      sload(0x01)\n        /* \"Calculator.sol\":521:527  B != 0 */\n      eq\n      iszero\n        /* \"Calculator.sol\":513:554  require(B != 0, \"Divisor cannot be zero\") */\n      tag_32\n      jumpi\n      mload(0x40)\n      0x08c379a000000000000000000000000000000000000000000000000000000000\n      dup2\n      mstore\n      0x04\n      add\n      tag_33\n      swap1\n      tag_28\n      jump\t// in\n    tag_33:\n      mload(0x40)\n      dup1\n      swap2\n      sub\n      swap1\n      revert\n    tag_32:\n        /* \"Calculator.sol\":577:578  B */\n      sload(0x01)\n        /* \"Calculator.sol\":572:573  A */\n      sload(0x00)\n        /* \"Calculator.sol\":572:578  A >= B */\n      lt\n      iszero\n        /* \"Calculator.sol\":564:632  require(A >= B, \"Dividend must be greater than or equal to divisor\") */\n      tag_34\n      jumpi\n      mload(0x40)\n      0x08c379a000000000000000000000000000000000000000000000000000000000\n      dup2\n      mstore\n      0x04\n      add\n      tag_35\n      swap1\n      tag_36\n      jump\t// in\n    tag_35:\n      mload(0x40)\n      dup1\n      swap2\n      sub\n      swap1\n      revert\n    tag_34:\n        /* \"Calculator.sol\":659:660  0 */\n      0x00\n        /* \"Calculator.sol\":654:655  B */\n      sload(0x01)\n        /* \"Calculator.sol\":650:651  A */\n      sload(0x00)\n        /* \"Calculator.sol\":650:655  A % B */\n      tag_37\n      swap2\n      swap1\n      tag_30\n      jump\t// in\n    tag_37:\n        /* \"Calculator.sol\":650:660  A % B == 0 */\n      eq\n        /* \"Calculator.sol\":642:685  require(A % B == 0, \"No remainder allowed\") */\n      tag_38\n      jumpi\n      mload(0x40)\n      0x08c379a000000000000000000000000000000000000000000000000000000000\n      dup2\n      mstore\n      0x04\n      add\n      tag_39\n      swap1\n      tag_40\n      jump\t// in\n    tag_39:\n      mload(0x40)\n      dup1\n      swap2\n      sub\n      swap1\n      revert\n    tag_38:\n        /* \"Calculator.sol\":707:708  B */\n      sload(0x01)\n        /* \"Calculator.sol\":703:704  A */\n      sload(0x00)\n        /* \"Calculator.sol\":703:708  A / B */\n      tag_41\n      swap2\n      swap1\n      tag_42\n      jump\t// in\n    tag_41:\n        /* \"Calculator.sol\":696:708  return A / B */\n      swap1\n      pop\n        /* \"Calculator.sol\":450:715  function divideInput() public view returns (uint256) {... */\n      swap1\n      jump\t// out\n        /* \"Calculator.sol\":105:121  uint256 public B */\n    tag_16:\n      sload(0x01)\n      dup2\n      jump\t// out\n        /* \"Calculator.sol\":721:893  function isEvenOrOdd() public view returns (string memory) {... */\n    tag_19:\n        /* \"Calculator.sol\":765:778  string memory */\n      0x60\n        /* \"Calculator.sol\":803:804  0 */\n      0x00\n        /* \"Calculator.sol\":798:799  2 */\n      0x02\n        /* \"Calculator.sol\":794:795  A */\n      sload(0x00)\n        /* \"Calculator.sol\":794:799  A % 2 */\n      tag_44\n      swap2\n      swap1\n      tag_30\n      jump\t// in\n    tag_44:\n        /* \"Calculator.sol\":794:804  A % 2 == 0 */\n      eq\n        /* \"Calculator.sol\":790:887  if (A % 2 == 0) {... */\n      iszero\n      tag_45\n      jumpi\n        /* \"Calculator.sol\":820:833  return \"Even\" */\n      mload(0x40)\n      dup1\n      0x40\n      add\n      0x40\n      mstore\n      dup1\n      0x04\n      dup2\n      mstore\n      0x20\n      add\n      0x4576656e00000000000000000000000000000000000000000000000000000000\n      dup2\n      mstore\n      pop\n      swap1\n      pop\n      jump(tag_43)\n        /* \"Calculator.sol\":790:887  if (A % 2 == 0) {... */\n    tag_45:\n        /* \"Calculator.sol\":864:876  return \"Odd\" */\n      mload(0x40)\n      dup1\n      0x40\n      add\n      0x40\n      mstore\n      dup1\n      0x03\n      dup2\n      mstore\n      0x20\n      add\n      0x4f64640000000000000000000000000000000000000000000000000000000000\n      dup2\n      mstore\n      pop\n      swap1\n      pop\n        /* \"Calculator.sol\":721:893  function isEvenOrOdd() public view returns (string memory) {... */\n    tag_43:\n      swap1\n      jump\t// out\n        /* \"Calculator.sol\":83:99  uint256 public A */\n    tag_23:\n      sload(0x00)\n      dup2\n      jump\t// out\n        /* \"#utility.yul\":7:371   */\n    tag_48:\n      0x00\n        /* \"#utility.yul\":123:162   */\n      tag_50\n        /* \"#utility.yul\":156:161   */\n      dup3\n        /* \"#utility.yul\":123:162   */\n      tag_51\n      jump\t// in\n    tag_50:\n        /* \"#utility.yul\":178:249   */\n      tag_52\n        /* \"#utility.yul\":242:248   */\n      dup2\n        /* \"#utility.yul\":237:240   */\n      dup6\n        /* \"#utility.yul\":178:249   */\n      tag_53\n      jump\t// in\n    tag_52:\n        /* \"#utility.yul\":171:249   */\n      swap4\n      pop\n        /* \"#utility.yul\":258:310   */\n      tag_54\n        /* \"#utility.yul\":303:309   */\n      dup2\n        /* \"#utility.yul\":298:301   */\n      dup6\n        /* \"#utility.yul\":291:295   */\n      0x20\n        /* \"#utility.yul\":284:289   */\n      dup7\n        /* \"#utility.yul\":280:296   */\n      add\n        /* \"#utility.yul\":258:310   */\n      tag_55\n      jump\t// in\n    tag_54:\n        /* \"#utility.yul\":335:364   */\n      tag_56\n        /* \"#utility.yul\":357:363   */\n      dup2\n        /* \"#utility.yul\":335:364   */\n      tag_57\n      jump\t// in\n    tag_56:\n        /* \"#utility.yul\":330:333   */\n      dup5\n        /* \"#utility.yul\":326:365   */\n      add\n        /* \"#utility.yul\":319:365   */\n      swap2\n      pop\n        /* \"#utility.yul\":99:371   */\n      pop\n      swap3\n      swap2\n      pop\n      pop\n      jump\t// out\n        /* \"#utility.yul\":377:697   */\n    tag_58:\n      0x00\n        /* \"#utility.yul\":540:607   */\n      tag_60\n        /* \"#utility.yul\":604:606   */\n      0x16\n        /* \"#utility.yul\":599:602   */\n      dup4\n        /* \"#utility.yul\":540:607   */\n      tag_53\n      jump\t// in\n    tag_60:\n        /* \"#utility.yul\":533:607   */\n      swap2\n      pop\n        /* \"#utility.yul\":637:661   */\n      0x44697669736f722063616e6e6f74206265207a65726f00000000000000000000\n        /* \"#utility.yul\":633:634   */\n      0x00\n        /* \"#utility.yul\":628:631   */\n      dup4\n        /* \"#utility.yul\":624:635   */\n      add\n        /* \"#utility.yul\":617:662   */\n      mstore\n        /* \"#utility.yul\":688:690   */\n      0x20\n        /* \"#utility.yul\":683:686   */\n      dup3\n        /* \"#utility.yul\":679:691   */\n      add\n        /* \"#utility.yul\":672:691   */\n      swap1\n      pop\n        /* \"#utility.yul\":523:697   */\n      swap2\n      swap1\n      pop\n      jump\t// out\n        /* \"#utility.yul\":703:1084   */\n    tag_61:\n      0x00\n        /* \"#utility.yul\":866:933   */\n      tag_63\n        /* \"#utility.yul\":930:932   */\n      0x31\n        /* \"#utility.yul\":925:928   */\n      dup4\n        /* \"#utility.yul\":866:933   */\n      tag_53\n      jump\t// in\n    tag_63:\n        /* \"#utility.yul\":859:933   */\n      swap2\n      pop\n        /* \"#utility.yul\":963:997   */\n      0x4469766964656e64206d7573742062652067726561746572207468616e206f72\n        /* \"#utility.yul\":959:960   */\n      0x00\n        /* \"#utility.yul\":954:957   */\n      dup4\n        /* \"#utility.yul\":950:961   */\n      add\n        /* \"#utility.yul\":943:998   */\n      mstore\n        /* \"#utility.yul\":1029:1048   */\n      0x20657175616c20746f2064697669736f72000000000000000000000000000000\n        /* \"#utility.yul\":1024:1026   */\n      0x20\n        /* \"#utility.yul\":1019:1022   */\n      dup4\n        /* \"#utility.yul\":1015:1027   */\n      add\n        /* \"#utility.yul\":1008:1049   */\n      mstore\n        /* \"#utility.yul\":1075:1077   */\n      0x40\n        /* \"#utility.yul\":1070:1073   */\n      dup3\n        /* \"#utility.yul\":1066:1078   */\n      add\n        /* \"#utility.yul\":1059:1078   */\n      swap1\n      pop\n        /* \"#utility.yul\":849:1084   */\n      swap2\n      swap1\n      pop\n      jump\t// out\n        /* \"#utility.yul\":1090:1408   */\n    tag_64:\n      0x00\n        /* \"#utility.yul\":1253:1320   */\n      tag_66\n        /* \"#utility.yul\":1317:1319   */\n      0x14\n        /* \"#utility.yul\":1312:1315   */\n      dup4\n        /* \"#utility.yul\":1253:1320   */\n      tag_53\n      jump\t// in\n    tag_66:\n        /* \"#utility.yul\":1246:1320   */\n      swap2\n      pop\n        /* \"#utility.yul\":1350:1372   */\n      0x4e6f2072656d61696e64657220616c6c6f776564000000000000000000000000\n        /* \"#utility.yul\":1346:1347   */\n      0x00\n        /* \"#utility.yul\":1341:1344   */\n      dup4\n        /* \"#utility.yul\":1337:1348   */\n      add\n        /* \"#utility.yul\":1330:1373   */\n      mstore\n        /* \"#utility.yul\":1399:1401   */\n      0x20\n        /* \"#utility.yul\":1394:1397   */\n      dup3\n        /* \"#utility.yul\":1390:1402   */\n      add\n        /* \"#utility.yul\":1383:1402   */\n      swap1\n      pop\n        /* \"#utility.yul\":1236:1408   */\n      swap2\n      swap1\n      pop\n      jump\t// out\n        /* \"#utility.yul\":1414:1532   */\n    tag_67:\n        /* \"#utility.yul\":1501:1525   */\n      tag_69\n        /* \"#utility.yul\":1519:1524   */\n      dup2\n        /* \"#utility.yul\":1501:1525   */\n      tag_70\n      jump\t// in\n    tag_69:\n        /* \"#utility.yul\":1496:1499   */\n      dup3\n        /* \"#utility.yul\":1489:1526   */\n      mstore\n        /* \"#utility.yul\":1479:1532   */\n      pop\n      pop\n      jump\t// out\n        /* \"#utility.yul\":1538:1851   */\n    tag_21:\n      0x00\n        /* \"#utility.yul\":1689:1691   */\n      0x20\n        /* \"#utility.yul\":1678:1687   */\n      dup3\n        /* \"#utility.yul\":1674:1692   */\n      add\n        /* \"#utility.yul\":1666:1692   */\n      swap1\n      pop\n        /* \"#utility.yul\":1738:1747   */\n      dup2\n        /* \"#utility.yul\":1732:1736   */\n      dup2\n        /* \"#utility.yul\":1728:1748   */\n      sub\n        /* \"#utility.yul\":1724:1725   */\n      0x00\n        /* \"#utility.yul\":1713:1722   */\n      dup4\n        /* \"#utility.yul\":1709:1726   */\n      add\n        /* \"#utility.yul\":1702:1749   */\n      mstore\n        /* \"#utility.yul\":1766:1844   */\n      tag_72\n        /* \"#utility.yul\":1839:1843   */\n      dup2\n        /* \"#utility.yul\":1830:1836   */\n      dup5\n        /* \"#utility.yul\":1766:1844   */\n      tag_48\n      jump\t// in\n    tag_72:\n        /* \"#utility.yul\":1758:1844   */\n      swap1\n      pop\n        /* \"#utility.yul\":1656:1851   */\n      swap3\n      swap2\n      pop\n      pop\n      jump\t// out\n        /* \"#utility.yul\":1857:2276   */\n    tag_28:\n      0x00\n        /* \"#utility.yul\":2061:2063   */\n      0x20\n        /* \"#utility.yul\":2050:2059   */\n      dup3\n        /* \"#utility.yul\":2046:2064   */\n      add\n        /* \"#utility.yul\":2038:2064   */\n      swap1\n      pop\n        /* \"#utility.yul\":2110:2119   */\n      dup2\n        /* \"#utility.yul\":2104:2108   */\n      dup2\n        /* \"#utility.yul\":2100:2120   */\n      sub\n        /* \"#utility.yul\":2096:2097   */\n      0x00\n        /* \"#utility.yul\":2085:2094   */\n      dup4\n        /* \"#utility.yul\":2081:2098   */\n      add\n        /* \"#utility.yul\":2074:2121   */\n      mstore\n        /* \"#utility.yul\":2138:2269   */\n      tag_74\n        /* \"#utility.yul\":2264:2268   */\n      dup2\n        /* \"#utility.yul\":2138:2269   */\n      tag_58\n      jump\t// in\n    tag_74:\n        /* \"#utility.yul\":2130:2269   */\n      swap1\n      pop\n        /* \"#utility.yul\":2028:2276   */\n      swap2\n      swap1\n      pop\n      jump\t// out\n        /* \"#utility.yul\":2282:2701   */\n    tag_36:\n      0x00\n        /* \"#utility.yul\":2486:2488   */\n      0x20\n        /* \"#utility.yul\":2475:2484   */\n      dup3\n        /* \"#utility.yul\":2471:2489   */\n      add\n        /* \"#utility.yul\":2463:2489   */\n      swap1\n      pop\n        /* \"#utility.yul\":2535:2544   */\n      dup2\n        /* \"#utility.yul\":2529:2533   */\n      dup2\n        /* \"#utility.yul\":2525:2545   */\n      sub\n        /* \"#utility.yul\":2521:2522   */\n      0x00\n        /* \"#utility.yul\":2510:2519   */\n      dup4\n        /* \"#utility.yul\":2506:2523   */\n      add\n        /* \"#utility.yul\":2499:2546   */\n      mstore\n        /* \"#utility.yul\":2563:2694   */\n      tag_76\n        /* \"#utility.yul\":2689:2693   */\n      dup2\n        /* \"#utility.yul\":2563:2694   */\n      tag_61\n      jump\t// in\n    tag_76:\n        /* \"#utility.yul\":2555:2694   */\n      swap1\n      pop\n        /* \"#utility.yul\":2453:2701   */\n      swap2\n      swap1\n      pop\n      jump\t// out\n        /* \"#utility.yul\":2707:3126   */\n    tag_40:\n      0x00\n        /* \"#utility.yul\":2911:2913   */\n      0x20\n        /* \"#utility.yul\":2900:2909   */\n      dup3\n        /* \"#utility.yul\":2896:2914   */\n      add\n        /* \"#utility.yul\":2888:2914   */\n      swap1\n      pop\n        /* \"#utility.yul\":2960:2969   */\n      dup2\n        /* \"#utility.yul\":2954:2958   */\n      dup2\n        /* \"#utility.yul\":2950:2970   */\n      sub\n        /* \"#utility.yul\":2946:2947   */\n      0x00\n        /* \"#utility.yul\":2935:2944   */\n      dup4\n        /* \"#utility.yul\":2931:2948   */\n      add\n        /* \"#utility.yul\":2924:2971   */\n      mstore\n        /* \"#utility.yul\":2988:3119   */\n      tag_78\n        /* \"#utility.yul\":3114:3118   */\n      dup2\n        /* \"#utility.yul\":2988:3119   */\n      tag_64\n      jump\t// in\n    tag_78:\n        /* \"#utility.yul\":2980:3119   */\n      swap1\n      pop\n        /* \"#utility.yul\":2878:3126   */\n      swap2\n      swap1\n      pop\n      jump\t// out\n        /* \"#utility.yul\":3132:3354   */\n    tag_11:\n      0x00\n        /* \"#utility.yul\":3263:3265   */\n      0x20\n        /* \"#utility.yul\":3252:3261   */\n      dup3\n        /* \"#utility.yul\":3248:3266   */\n      add\n        /* \"#utility.yul\":3240:3266   */\n      swap1\n      pop\n        /* \"#utility.yul\":3276:3347   */\n      tag_80\n        /* \"#utility.yul\":3344:3345   */\n      0x00\n        /* \"#utility.yul\":3333:3342   */\n      dup4\n        /* \"#utility.yul\":3329:3346   */\n      add\n        /* \"#utility.yul\":3320:3326   */\n      dup5\n        /* \"#utility.yul\":3276:3347   */\n      tag_67\n      jump\t// in\n    tag_80:\n        /* \"#utility.yul\":3230:3354   */\n      swap3\n      swap2\n      pop\n      pop\n      jump\t// out\n        /* \"#utility.yul\":3360:3459   */\n    tag_51:\n      0x00\n        /* \"#utility.yul\":3446:3451   */\n      dup2\n        /* \"#utility.yul\":3440:3452   */\n      mload\n        /* \"#utility.yul\":3430:3452   */\n      swap1\n      pop\n        /* \"#utility.yul\":3419:3459   */\n      swap2\n      swap1\n      pop\n      jump\t// out\n        /* \"#utility.yul\":3465:3634   */\n    tag_53:\n      0x00\n        /* \"#utility.yul\":3583:3589   */\n      dup3\n        /* \"#utility.yul\":3578:3581   */\n      dup3\n        /* \"#utility.yul\":3571:3590   */\n      mstore\n        /* \"#utility.yul\":3623:3627   */\n      0x20\n        /* \"#utility.yul\":3618:3621   */\n      dup3\n        /* \"#utility.yul\":3614:3628   */\n      add\n        /* \"#utility.yul\":3599:3628   */\n      swap1\n      pop\n        /* \"#utility.yul\":3561:3634   */\n      swap3\n      swap2\n      pop\n      pop\n      jump\t// out\n        /* \"#utility.yul\":3640:3825   */\n    tag_42:\n      0x00\n        /* \"#utility.yul\":3697:3717   */\n      tag_84\n        /* \"#utility.yul\":3715:3716   */\n      dup3\n        /* \"#utility.yul\":3697:3717   */\n      tag_70\n      jump\t// in\n    tag_84:\n        /* \"#utility.yul\":3692:3717   */\n      swap2\n      pop\n        /* \"#utility.yul\":3731:3751   */\n      tag_85\n        /* \"#utility.yul\":3749:3750   */\n      dup4\n        /* \"#utility.yul\":3731:3751   */\n      tag_70\n      jump\t// in\n    tag_85:\n        /* \"#utility.yul\":3726:3751   */\n      swap3\n      pop\n        /* \"#utility.yul\":3770:3771   */\n      dup3\n        /* \"#utility.yul\":3760:3762   */\n      tag_86\n      jumpi\n        /* \"#utility.yul\":3775:3793   */\n      tag_87\n      tag_88\n      jump\t// in\n    tag_87:\n        /* \"#utility.yul\":3760:3762   */\n    tag_86:\n        /* \"#utility.yul\":3817:3818   */\n      dup3\n        /* \"#utility.yul\":3814:3815   */\n      dup3\n        /* \"#utility.yul\":3810:3819   */\n      div\n        /* \"#utility.yul\":3805:3819   */\n      swap1\n      pop\n        /* \"#utility.yul\":3682:3825   */\n      swap3\n      swap2\n      pop\n      pop\n      jump\t// out\n        /* \"#utility.yul\":3831:3908   */\n    tag_70:\n      0x00\n        /* \"#utility.yul\":3897:3902   */\n      dup2\n        /* \"#utility.yul\":3886:3902   */\n      swap1\n      pop\n        /* \"#utility.yul\":3876:3908   */\n      swap2\n      swap1\n      pop\n      jump\t// out\n        /* \"#utility.yul\":3914:4221   */\n    tag_55:\n        /* \"#utility.yul\":3982:3983   */\n      0x00\n        /* \"#utility.yul\":3992:4105   */\n    tag_91:\n        /* \"#utility.yul\":4006:4012   */\n      dup4\n        /* \"#utility.yul\":4003:4004   */\n      dup2\n        /* \"#utility.yul\":4000:4013   */\n      lt\n        /* \"#utility.yul\":3992:4105   */\n      iszero\n      tag_93\n      jumpi\n        /* \"#utility.yul\":4091:4092   */\n      dup1\n        /* \"#utility.yul\":4086:4089   */\n      dup3\n        /* \"#utility.yul\":4082:4093   */\n      add\n        /* \"#utility.yul\":4076:4094   */\n      mload\n        /* \"#utility.yul\":4072:4073   */\n      dup2\n        /* \"#utility.yul\":4067:4070   */\n      dup5\n        /* \"#utility.yul\":4063:4074   */\n      add\n        /* \"#utility.yul\":4056:4095   */\n      mstore\n        /* \"#utility.yul\":4028:4030   */\n      0x20\n        /* \"#utility.yul\":4025:4026   */\n      dup2\n        /* \"#utility.yul\":4021:4031   */\n      add\n        /* \"#utility.yul\":4016:4031   */\n      swap1\n      pop\n        /* \"#utility.yul\":3992:4105   */\n      jump(tag_91)\n    tag_93:\n        /* \"#utility.yul\":4123:4129   */\n      dup4\n        /* \"#utility.yul\":4120:4121   */\n      dup2\n        /* \"#utility.yul\":4117:4130   */\n      gt\n        /* \"#utility.yul\":4114:4116   */\n      iszero\n      tag_94\n      jumpi\n        /* \"#utility.yul\":4203:4204   */\n      0x00\n        /* \"#utility.yul\":4194:4200   */\n      dup5\n        /* \"#utility.yul\":4189:4192   */\n      dup5\n        /* \"#utility.yul\":4185:4201   */\n      add\n        /* \"#utility.yul\":4178:4205   */\n      mstore\n        /* \"#utility.yul\":4114:4116   */\n    tag_94:\n        /* \"#utility.yul\":3963:4221   */\n      pop\n      pop\n      pop\n      pop\n      jump\t// out\n        /* \"#utility.yul\":4227:4403   */\n    tag_30:\n      0x00\n        /* \"#utility.yul\":4276:4296   */\n      tag_96\n        /* \"#utility.yul\":4294:4295   */\n      dup3\n        /* \"#utility.yul\":4276:4296   */\n      tag_70\n      jump\t// in\n    tag_96:\n        /* \"#utility.yul\":4271:4296   */\n      swap2\n      pop\n        /* \"#utility.yul\":4310:4330   */\n      tag_97\n        /* \"#utility.yul\":4328:4329   */\n      dup4\n        /* \"#utility.yul\":4310:4330   */\n      tag_70\n      jump\t// in\n    tag_97:\n        /* \"#utility.yul\":4305:4330   */\n      swap3\n      pop\n        /* \"#utility.yul\":4349:4350   */\n      dup3\n        /* \"#utility.yul\":4339:4341   */\n      tag_98\n      jumpi\n        /* \"#utility.yul\":4354:4372   */\n      tag_99\n      tag_88\n      jump\t// in\n    tag_99:\n        /* \"#utility.yul\":4339:4341   */\n    tag_98:\n        /* \"#utility.yul\":4395:4396   */\n      dup3\n        /* \"#utility.yul\":4392:4393   */\n      dup3\n        /* \"#utility.yul\":4388:4397   */\n      mod\n        /* \"#utility.yul\":4383:4397   */\n      swap1\n      pop\n        /* \"#utility.yul\":4261:4403   */\n      swap3\n      swap2\n      pop\n      pop\n      jump\t// out\n        /* \"#utility.yul\":4595:4775   */\n    tag_88:\n        /* \"#utility.yul\":4643:4720   */\n      0x4e487b7100000000000000000000000000000000000000000000000000000000\n        /* \"#utility.yul\":4640:4641   */\n      0x00\n        /* \"#utility.yul\":4633:4721   */\n      mstore\n        /* \"#utility.yul\":4740:4744   */\n      0x12\n        /* \"#utility.yul\":4737:4738   */\n      0x04\n        /* \"#utility.yul\":4730:4745   */\n      mstore\n        /* \"#utility.yul\":4764:4768   */\n      0x24\n        /* \"#utility.yul\":4761:4762   */\n      0x00\n        /* \"#utility.yul\":4754:4769   */\n      revert\n        /* \"#utility.yul\":4781:4883   */\n    tag_57:\n      0x00\n        /* \"#utility.yul\":4873:4875   */\n      0x1f\n        /* \"#utility.yul\":4869:4876   */\n      not\n        /* \"#utility.yul\":4864:4866   */\n      0x1f\n        /* \"#utility.yul\":4857:4862   */\n      dup4\n        /* \"#utility.yul\":4853:4867   */\n      add\n        /* \"#utility.yul\":4849:4877   */\n      and\n        /* \"#utility.yul\":4839:4877   */\n      swap1\n      pop\n        /* \"#utility.yul\":4829:4883   */\n      swap2\n      swap1\n      pop\n      jump\t// out\n\n    auxdata: 0xa2646970667358221220ab413d8681050ebf6b84b5a9137a9b9d837a6a0686df7ba7861b5f8f14bbb43c64736f6c63430008000033\n}\n",
				"bytecode": {
					"linkReferences": {},
					"object": "608060405234801561001057600080fd5b506040516106a93803806106a983398181016040528101906100329190610060565b81818160008190555080600181905550505050506100bd565b60008151905061005a816100a6565b92915050565b6000806040838503121561007357600080fd5b60006100818582860161004b565b92505060206100928582860161004b565b9150509250929050565b6000819050919050565b6100af8161009c565b81146100ba57600080fd5b50565b6105dd806100cc6000396000f3fe608060405234801561001057600080fd5b50600436106100575760003560e01c806303e8ab5d1461005c578063223484261461007a57806332e7c5bf14610098578063772e3277146100b6578063f446c1d0146100d4575b600080fd5b6100646100f2565b6040516100719190610491565b60405180910390f35b61008261014e565b60405161008f9190610491565b60405180910390f35b6100a0610243565b6040516100ad9190610491565b60405180910390f35b6100be610249565b6040516100cb919061040f565b60405180910390f35b6100dc6102db565b6040516100e99190610491565b60405180910390f35b6000806001541415610139576040517f08c379a000000000000000000000000000000000000000000000000000000000815260040161013090610431565b60405180910390fd5b6001546000546101499190610536565b905090565b6000806001541415610195576040517f08c379a000000000000000000000000000000000000000000000000000000000815260040161018c90610431565b60405180910390fd5b60015460005410156101dc576040517f08c379a00000000000000000000000000000000000000000000000000000000081526004016101d390610451565b60405180910390fd5b60006001546000546101ee9190610536565b1461022e576040517f08c379a000000000000000000000000000000000000000000000000000000000815260040161022590610471565b60405180910390fd5b60015460005461023e91906104c8565b905090565b60015481565b60606000600260005461025c9190610536565b141561029f576040518060400160405280600481526020017f4576656e0000000000000000000000000000000000000000000000000000000081525090506102d8565b6040518060400160405280600381526020017f4f6464000000000000000000000000000000000000000000000000000000000081525090505b90565b60005481565b60006102ec826104ac565b6102f681856104b7565b9350610306818560208601610503565b61030f81610596565b840191505092915050565b60006103276016836104b7565b91507f44697669736f722063616e6e6f74206265207a65726f000000000000000000006000830152602082019050919050565b60006103676031836104b7565b91507f4469766964656e64206d7573742062652067726561746572207468616e206f7260008301527f20657175616c20746f2064697669736f720000000000000000000000000000006020830152604082019050919050565b60006103cd6014836104b7565b91507f4e6f2072656d61696e64657220616c6c6f7765640000000000000000000000006000830152602082019050919050565b610409816104f9565b82525050565b6000602082019050818103600083015261042981846102e1565b905092915050565b6000602082019050818103600083015261044a8161031a565b9050919050565b6000602082019050818103600083015261046a8161035a565b9050919050565b6000602082019050818103600083015261048a816103c0565b9050919050565b60006020820190506104a66000830184610400565b92915050565b600081519050919050565b600082825260208201905092915050565b60006104d3826104f9565b91506104de836104f9565b9250826104ee576104ed610567565b5b828204905092915050565b6000819050919050565b60005b83811015610521578082015181840152602081019050610506565b83811115610530576000848401525b50505050565b6000610541826104f9565b915061054c836104f9565b92508261055c5761055b610567565b5b828206905092915050565b7f4e487b7100000000000000000000000000000000000000000000000000000000600052601260045260246000fd5b6000601f19601f830116905091905056fea2646970667358221220ab413d8681050ebf6b84b5a9137a9b9d837a6a0686df7ba7861b5f8f14bbb43c64736f6c63430008000033",
					"opcodes": "PUSH1 0x80 PUSH1 0x40 MSTORE CALLVALUE DUP1 ISZERO PUSH2 0x10 JUMPI PUSH1 0x0 DUP1 REVERT JUMPDEST POP PUSH1 0x40 MLOAD PUSH2 0x6A9 CODESIZE SUB DUP1 PUSH2 0x6A9 DUP4 CODECOPY DUP2 DUP2 ADD PUSH1 0x40 MSTORE DUP2 ADD SWAP1 PUSH2 0x32 SWAP2 SWAP1 PUSH2 0x60 JUMP JUMPDEST DUP2 DUP2 DUP2 PUSH1 0x0 DUP2 SWAP1 SSTORE POP DUP1 PUSH1 0x1 DUP2 SWAP1 SSTORE POP POP POP POP POP PUSH2 0xBD JUMP JUMPDEST PUSH1 0x0 DUP2 MLOAD SWAP1 POP PUSH2 0x5A DUP2 PUSH2 0xA6 JUMP JUMPDEST SWAP3 SWAP2 POP POP JUMP JUMPDEST PUSH1 0x0 DUP1 PUSH1 0x40 DUP4 DUP6 SUB SLT ISZERO PUSH2 0x73 JUMPI PUSH1 0x0 DUP1 REVERT JUMPDEST PUSH1 0x0 PUSH2 0x81 DUP6 DUP3 DUP7 ADD PUSH2 0x4B JUMP JUMPDEST SWAP3 POP POP PUSH1 0x20 PUSH2 0x92 DUP6 DUP3 DUP7 ADD PUSH2 0x4B JUMP JUMPDEST SWAP2 POP POP SWAP3 POP SWAP3 SWAP1 POP JUMP JUMPDEST PUSH1 0x0 DUP2 SWAP1 POP SWAP2 SWAP1 POP JUMP JUMPDEST PUSH2 0xAF DUP2 PUSH2 0x9C JUMP JUMPDEST DUP2 EQ PUSH2 0xBA JUMPI PUSH1 0x0 DUP1 REVERT JUMPDEST POP JUMP JUMPDEST PUSH2 0x5DD DUP1 PUSH2 0xCC PUSH1 0x0 CODECOPY PUSH1 0x0 RETURN INVALID PUSH1 0x80 PUSH1 0x40 MSTORE CALLVALUE DUP1 ISZERO PUSH2 0x10 JUMPI PUSH1 0x0 DUP1 REVERT JUMPDEST POP PUSH1 0x4 CALLDATASIZE LT PUSH2 0x57 JUMPI PUSH1 0x0 CALLDATALOAD PUSH1 0xE0 SHR DUP1 PUSH4 0x3E8AB5D EQ PUSH2 0x5C JUMPI DUP1 PUSH4 0x22348426 EQ PUSH2 0x7A JUMPI DUP1 PUSH4 0x32E7C5BF EQ PUSH2 0x98 JUMPI DUP1 PUSH4 0x772E3277 EQ PUSH2 0xB6 JUMPI DUP1 PUSH4 0xF446C1D0 EQ PUSH2 0xD4 JUMPI JUMPDEST PUSH1 0x0 DUP1 REVERT JUMPDEST PUSH2 0x64 PUSH2 0xF2 JUMP JUMPDEST PUSH1 0x40 MLOAD PUSH2 0x71 SWAP2 SWAP1 PUSH2 0x491 JUMP JUMPDEST PUSH1 0x40 MLOAD DUP1 SWAP2 SUB SWAP1 RETURN JUMPDEST PUSH2 0x82 PUSH2 0x14E JUMP JUMPDEST PUSH1 0x40 MLOAD PUSH2 0x8F SWAP2 SWAP1 PUSH2 0x491 JUMP JUMPDEST PUSH1 0x40 MLOAD DUP1 SWAP2 SUB SWAP1 RETURN JUMPDEST PUSH2 0xA0 PUSH2 0x243 JUMP JUMPDEST PUSH1 0x40 MLOAD PUSH2 0xAD SWAP2 SWAP1 PUSH2 0x491 JUMP JUMPDEST PUSH1 0x40 MLOAD DUP1 SWAP2 SUB SWAP1 RETURN JUMPDEST PUSH2 0xBE PUSH2 0x249 JUMP JUMPDEST PUSH1 0x40 MLOAD PUSH2 0xCB SWAP2 SWAP1 PUSH2 0x40F JUMP JUMPDEST PUSH1 0x40 MLOAD DUP1 SWAP2 SUB SWAP1 RETURN JUMPDEST PUSH2 0xDC PUSH2 0x2DB JUMP JUMPDEST PUSH1 0x40 MLOAD PUSH2 0xE9 SWAP2 SWAP1 PUSH2 0x491 JUMP JUMPDEST PUSH1 0x40 MLOAD DUP1 SWAP2 SUB SWAP1 RETURN JUMPDEST PUSH1 0x0 DUP1 PUSH1 0x1 SLOAD EQ ISZERO PUSH2 0x139 JUMPI PUSH1 0x40 MLOAD PUSH32 0x8C379A000000000000000000000000000000000000000000000000000000000 DUP2 MSTORE PUSH1 0x4 ADD PUSH2 0x130 SWAP1 PUSH2 0x431 JUMP JUMPDEST PUSH1 0x40 MLOAD DUP1 SWAP2 SUB SWAP1 REVERT JUMPDEST PUSH1 0x1 SLOAD PUSH1 0x0 SLOAD PUSH2 0x149 SWAP2 SWAP1 PUSH2 0x536 JUMP JUMPDEST SWAP1 POP SWAP1 JUMP JUMPDEST PUSH1 0x0 DUP1 PUSH1 0x1 SLOAD EQ ISZERO PUSH2 0x195 JUMPI PUSH1 0x40 MLOAD PUSH32 0x8C379A000000000000000000000000000000000000000000000000000000000 DUP2 MSTORE PUSH1 0x4 ADD PUSH2 0x18C SWAP1 PUSH2 0x431 JUMP JUMPDEST PUSH1 0x40 MLOAD DUP1 SWAP2 SUB SWAP1 REVERT JUMPDEST PUSH1 0x1 SLOAD PUSH1 0x0 SLOAD LT ISZERO PUSH2 0x1DC JUMPI PUSH1 0x40 MLOAD PUSH32 0x8C379A000000000000000000000000000000000000000000000000000000000 DUP2 MSTORE PUSH1 0x4 ADD PUSH2 0x1D3 SWAP1 PUSH2 0x451 JUMP JUMPDEST PUSH1 0x40 MLOAD DUP1 SWAP2 SUB SWAP1 REVERT JUMPDEST PUSH1 0x0 PUSH1 0x1 SLOAD PUSH1 0x0 SLOAD PUSH2 0x1EE SWAP2 SWAP1 PUSH2 0x536 JUMP JUMPDEST EQ PUSH2 0x22E JUMPI PUSH1 0x40 MLOAD PUSH32 0x8C379A000000000000000000000000000000000000000000000000000000000 DUP2 MSTORE PUSH1 0x4 ADD PUSH2 0x225 SWAP1 PUSH2 0x471 JUMP JUMPDEST PUSH1 0x40 MLOAD DUP1 SWAP2 SUB SWAP1 REVERT JUMPDEST PUSH1 0x1 SLOAD PUSH1 0x0 SLOAD PUSH2 0x23E SWAP2 SWAP1 PUSH2 0x4C8 JUMP JUMPDEST SWAP1 POP SWAP1 JUMP JUMPDEST PUSH1 0x1 SLOAD DUP2 JUMP JUMPDEST PUSH1 0x60 PUSH1 0x0 PUSH1 0x2 PUSH1 0x0 SLOAD PUSH2 0x25C SWAP2 SWAP1 PUSH2 0x536 JUMP JUMPDEST EQ ISZERO PUSH2 0x29F JUMPI PUSH1 0x40 MLOAD DUP1 PUSH1 0x40 ADD PUSH1 0x40 MSTORE DUP1 PUSH1 0x4 DUP2 MSTORE PUSH1 0x20 ADD PUSH32 0x4576656E00000000000000000000000000000000000000000000000000000000 DUP2 MSTORE POP SWAP1 POP PUSH2 0x2D8 JUMP JUMPDEST PUSH1 0x40 MLOAD DUP1 PUSH1 0x40 ADD PUSH1 0x40 MSTORE DUP1 PUSH1 0x3 DUP2 MSTORE PUSH1 0x20 ADD PUSH32 0x4F64640000000000000000000000000000000000000000000000000000000000 DUP2 MSTORE POP SWAP1 POP JUMPDEST SWAP1 JUMP JUMPDEST PUSH1 0x0 SLOAD DUP2 JUMP JUMPDEST PUSH1 0x0 PUSH2 0x2EC DUP3 PUSH2 0x4AC JUMP JUMPDEST PUSH2 0x2F6 DUP2 DUP6 PUSH2 0x4B7 JUMP JUMPDEST SWAP4 POP PUSH2 0x306 DUP2 DUP6 PUSH1 0x20 DUP7 ADD PUSH2 0x503 JUMP JUMPDEST PUSH2 0x30F DUP2 PUSH2 0x596 JUMP JUMPDEST DUP5 ADD SWAP2 POP POP SWAP3 SWAP2 POP POP JUMP JUMPDEST PUSH1 0x0 PUSH2 0x327 PUSH1 0x16 DUP4 PUSH2 0x4B7 JUMP JUMPDEST SWAP2 POP PUSH32 0x44697669736F722063616E6E6F74206265207A65726F00000000000000000000 PUSH1 0x0 DUP4 ADD MSTORE PUSH1 0x20 DUP3 ADD SWAP1 POP SWAP2 SWAP1 POP JUMP JUMPDEST PUSH1 0x0 PUSH2 0x367 PUSH1 0x31 DUP4 PUSH2 0x4B7 JUMP JUMPDEST SWAP2 POP PUSH32 0x4469766964656E64206D7573742062652067726561746572207468616E206F72 PUSH1 0x0 DUP4 ADD MSTORE PUSH32 0x20657175616C20746F2064697669736F72000000000000000000000000000000 PUSH1 0x20 DUP4 ADD MSTORE PUSH1 0x40 DUP3 ADD SWAP1 POP SWAP2 SWAP1 POP JUMP JUMPDEST PUSH1 0x0 PUSH2 0x3CD PUSH1 0x14 DUP4 PUSH2 0x4B7 JUMP JUMPDEST SWAP2 POP PUSH32 0x4E6F2072656D61696E64657220616C6C6F776564000000000000000000000000 PUSH1 0x0 DUP4 ADD MSTORE PUSH1 0x20 DUP3 ADD SWAP1 POP SWAP2 SWAP1 POP JUMP JUMPDEST PUSH2 0x409 DUP2 PUSH2 0x4F9 JUMP JUMPDEST DUP3 MSTORE POP POP JUMP JUMPDEST PUSH1 0x0 PUSH1 0x20 DUP3 ADD SWAP1 POP DUP2 DUP2 SUB PUSH1 0x0 DUP4 ADD MSTORE PUSH2 0x429 DUP2 DUP5 PUSH2 0x2E1 JUMP JUMPDEST SWAP1 POP SWAP3 SWAP2 POP POP JUMP JUMPDEST PUSH1 0x0 PUSH1 0x20 DUP3 ADD SWAP1 POP DUP2 DUP2 SUB PUSH1 0x0 DUP4 ADD MSTORE PUSH2 0x44A DUP2 PUSH2 0x31A JUMP JUMPDEST SWAP1 POP SWAP2 SWAP1 POP JUMP JUMPDEST PUSH1 0x0 PUSH1 0x20 DUP3 ADD SWAP1 POP DUP2 DUP2 SUB PUSH1 0x0 DUP4 ADD MSTORE PUSH2 0x46A DUP2 PUSH2 0x35A JUMP JUMPDEST SWAP1 POP SWAP2 SWAP1 POP JUMP JUMPDEST PUSH1 0x0 PUSH1 0x20 DUP3 ADD SWAP1 POP DUP2 DUP2 SUB PUSH1 0x0 DUP4 ADD MSTORE PUSH2 0x48A DUP2 PUSH2 0x3C0 JUMP JUMPDEST SWAP1 POP SWAP2 SWAP1 POP JUMP JUMPDEST PUSH1 0x0 PUSH1 0x20 DUP3 ADD SWAP1 POP PUSH2 0x4A6 PUSH1 0x0 DUP4 ADD DUP5 PUSH2 0x400 JUMP JUMPDEST SWAP3 SWAP2 POP POP JUMP JUMPDEST PUSH1 0x0 DUP2 MLOAD SWAP1 POP SWAP2 SWAP1 POP JUMP JUMPDEST PUSH1 0x0 DUP3 DUP3 MSTORE PUSH1 0x20 DUP3 ADD SWAP1 POP SWAP3 SWAP2 POP POP JUMP JUMPDEST PUSH1 0x0 PUSH2 0x4D3 DUP3 PUSH2 0x4F9 JUMP JUMPDEST SWAP2 POP PUSH2 0x4DE DUP4 PUSH2 0x4F9 JUMP JUMPDEST SWAP3 POP DUP3 PUSH2 0x4EE JUMPI PUSH2 0x4ED PUSH2 0x567 JUMP JUMPDEST JUMPDEST DUP3 DUP3 DIV SWAP1 POP SWAP3 SWAP2 POP POP JUMP JUMPDEST PUSH1 0x0 DUP2 SWAP1 POP SWAP2 SWAP1 POP JUMP JUMPDEST PUSH1 0x0 JUMPDEST DUP4 DUP2 LT ISZERO PUSH2 0x521 JUMPI DUP1 DUP3 ADD MLOAD DUP2 DUP5 ADD MSTORE PUSH1 0x20 DUP2 ADD SWAP1 POP PUSH2 0x506 JUMP JUMPDEST DUP4 DUP2 GT ISZERO PUSH2 0x530 JUMPI PUSH1 0x0 DUP5 DUP5 ADD MSTORE JUMPDEST POP POP POP POP JUMP JUMPDEST PUSH1 0x0 PUSH2 0x541 DUP3 PUSH2 0x4F9 JUMP JUMPDEST SWAP2 POP PUSH2 0x54C DUP4 PUSH2 0x4F9 JUMP JUMPDEST SWAP3 POP DUP3 PUSH2 0x55C JUMPI PUSH2 0x55B PUSH2 0x567 JUMP JUMPDEST JUMPDEST DUP3 DUP3 MOD SWAP1 POP SWAP3 SWAP2 POP POP JUMP JUMPDEST PUSH32 0x4E487B7100000000000000000000000000000000000000000000000000000000 PUSH1 0x0 MSTORE PUSH1 0x12 PUSH1 0x4 MSTORE PUSH1 0x24 PUSH1 0x0 REVERT JUMPDEST PUSH1 0x0 PUSH1 0x1F NOT PUSH1 0x1F DUP4 ADD AND SWAP1 POP SWAP2 SWAP1 POP JUMP INVALID LOG2 PUSH5 0x6970667358 0x22 SLT KECCAK256 0xAB COINBASE RETURNDATASIZE DUP7 DUP2 SDIV 0xE 0xBF PUSH12 0x84B5A9137A9B9D837A6A0686 0xDF PUSH28 0xA7861B5F8F14BBB43C64736F6C634300080000330000000000000000 "
				},
				"gasEstimates": {
					"creation": {
						"codeDepositCost": "300200",
						"executionCost": "infinite",
						"totalCost": "infinite"
					},
					"external": {
						"A()": "1195",
						"B()": "1151",
						"checkModulo()": "infinite",
						"divideInput()": "infinite",
						"isEvenOrOdd()": "infinite"
					}
				},
				"methodIdentifiers": {
					"A()": "f446c1d0",
					"B()": "32e7c5bf",
					"checkModulo()": "03e8ab5d",
					"divideInput()": "22348426",
					"isEvenOrOdd()": "772e3277"
				}
			},
			"storageLayout": {
				"storage": [
					{
						"astId": 3,
						"contract": "Calculator.sol:Calculator",
						"label": "A",
						"offset": 0,
						"slot": "0",
						"type": "t_uint256"
					},
					{
						"astId": 5,
						"contract": "Calculator.sol:Calculator",
						"label": "B",
						"offset": 0,
						"slot": "1",
						"type": "t_uint256"
					}
				],
				"types": {
					"t_uint256": {
						"encoding": "inplace",
						"label": "uint256",
						"numberOfBytes": "32"
					}
				}
			},
			"userdoc": {
				"kind": "user",
				"methods": {},
				"version": 1
			}
		}
	}
}